S02B0000433A2F55736572732F74617372697661732F53696D706C696369747953747564696F2F76365F776F8C
S3150800000000040020F7520008FB520008FB520008C3
S31508000010FB520008FB520008FB520008FB5200087E
S31508000020FB520008FB520008FB520008E15D00087D
S31508000030FB520008FB520008855D0008CF7E0008C9
S31508000040FB520008FB520008FB520008FB5200084E
S31508000050FB520008FB520008FB520008FB5200083E
S31508000060FB520008DD410008FB520008FB5200085D
S31508000070FB520008FB520008FB520008FB5200081E
S31508000080FB520008FB520008FB520008FB5200080E
S31508000090FB520008BD330008FB520008FB5200085B
S315080000A0FB520008BD0D00089D0D0008FB52000814
S315080000B0FB520008FB520008FB520008FB520008DE
S315080000C0FB520008FB520008FB520008FB520008CE
S315080000D0FB520008FB520008FB520008FB520008BE
S315080000E0FB520008FB520008FB520008FB520008AE
S315080000F0FB520008FB520008FB520008FB5200089E
S31508000100FB520008FB520008FB520008FB5200088D
S31508000110FB520008FB520008FB520008FB5200087D
S31508000120FB520008FB520008FB520008FB5200086D
S31508000130FB520008FB520008FB520008FB5200085D
S31508000140FB520008FB520008FB520008FF85000816
S31508000150FB520008FB520008FB520008FB5200083D
S31508000160FB520008FB520008FB520008FB5200082D
S31508000170013800D0FCE770470348044B834202D09D
S31508000180034B03B1184770470C1500200C150020C7
S3150800019000000000064B0749C91A891048BF0131FB
S315080001A0491003D0044B0BB101481847704700BFEC
S315080001B00C1500200C1500200000000010B5064C98
S315080001C0237843B9FFF7D8FF044B13B10448AFF3BC
S315080001D000800123237010BDE213002000000000F8
S315080001E030A1000808B5054B1BB105490548AFF312
S315080001F00080BDE80840FFF7CDBF00BF0000000043
S315080002000004002030A10008A3F5803A704700BF1B
S31508000210174B002B08BF134B9D46FFF7F5FF002130
S315080002208B460F461348144A121A05F004FB0E4B68
S31508000230002B00D098470D4B002B00D09847002084
S31508000240002104000D000D48002802D00C48AFF329
S31508000250008004F0E5FD2000290005F058FA04F0B6
S315080002600DFD00BF000008000000000000000000AF
S315080002700004002000040020941400200000000060
S315080002800000000008B5044808F06BF805F0A4FA69
S31508000290BDE8084000F008B87C9F0008014808F04F
S315080002A060B800BF7C9F00082DE9F0415D4C92B014
S315080002B009AD94E80F0085E80F000DAA174604F16A
S315080002C0100304F1200C164618685968083303C64B
S315080002D063453246F7D11868534B08A93060187938
S315080002E008F03AF8514808F03CF8514808F039F84F
S315080002F04FF4807308984F49ADF83430814228BFCF
S3150800030001460C9702F0EEFB29460A904A4802F08D
S315080003100BFB494802F0AAF9474802F033FA464867
S3150800032002F0F4F9B4F82480012204216846ADF8F5
S31508000330008000F087FCE78C0022012101A8ADF8B7
S31508000340047000F07FFC268D0122042102A8ADF876
S31508000350086000F077FC658D0122042103A8374C5C
S31508000360ADF80C5000F06EFC354B4FF44870C4F8ED
S31508000370C8344FF00213C4F8C434A3F58033C4F864
S31508000380CC341C23C4F8B43403F082FC07A8ADF8B7
S315080003901C5000F0AFFC142003F07AFC07A8ADF857
S315080003A01C5000F083FC232003F072FC07A8ADF86C
S315080003B01C5000F09FFCB9211F4802F075FB07A8E6
S315080003C0ADF81C5000F072FC002204A81146ADF8E6
S315080003D0108000F037FC002205A81146ADF814700D
S315080003E000F030FC0122002106A8ADF8186000F0E4
S315080003F029FC0122002107A8ADF81C5000F022FCB8
S315080004000D4802F041FA00230948C4F8B434C4F888
S31508000410C834C4F8C434C4F8CC3407F0A5FF12B005
S31508000420BDE8F08158860008BC9F00087C9F00083C
S31508000430809F0008E070720000000A5000C0035058
S315080004400200030040F6B131014804F052BF00BF74
S3150800045084860008002307B50193084B1B680133FF
S3150800046004D040F22131064804F043FF07F0FDFDB1
S31508000470019B002BFCD003B05DF804FB941400200C
S315080004800B87000808B5EFF305830F2B0AD90E4A28
S315080004909B5C0E4A12789A4204D940F2A1710C4824
S315080004A004F027FF4FF0E0230A4AD3F80C3D126800
S315080004B003F4E063934206D9BDE8084040F2B171FF
S315080004C0034804F016BF08BDF0E300E0E31300207C
S315080004D00B870008CC09002038B504460D4601B143
S315080004E018B93721034804F004FF23682B602560F8
S315080004F038BD00BF368900080348044A0449121A61
S31508000500921004F0FBBE00BF7001000870010008DD
S315080005109414002008B5154B83F30A8800F030F8C8
S31508000520FFF7EAFF124B13498B4212D30020124BF6
S3150800053012498B4218D3FFF76BFE186850F8224011
S31508000540586840F82240013298688242F5D30C3345
S31508000550EAE70022F8E71C6844F8220001325C68E2
S31508000560A242F8D30833E4E70022F8E700000020A7
S3150800057038A1000844A1000844A1000844A10008C5
S315080005804FF48041124B134A70B59A60D3F888200D
S31508000590114D42F47002C3F88820104A05F500543C
S315080005A091664FF0FF3222660D4A62660222C3F850
S315080005B0D020BFF34F8FBFF36F8F4FF44036002024
S315080005C002F05CFF0020E66002F026FF2E6170BD97
S315080005D000ED00E000000008008000440090005094
S315080005E0F7FF3700014B1860704700BF9C140020C6
S315080005F0054B1860054B1B6F03F00703032B01D14E
S3150800060006F0C4BF704700BFA41400200080005045
S31508000610002307B52948019307F0A3FE4FF440735A
S31508000620012204216846ADF8003000F00BFB0122D8
S31508000630234B0520C3F8442401A907F08DFE0028A2
S3150800064039D1204BD3F8F02042F00102C3F8F0204C
S31508000650D3F8FC2042F08072C3F8FC201A4AA3F5AE
S315080006605D431A60019B194A03F5D52303F2FC433F
S31508000670B3FBF2F3164A013B13610223C2F8F030CA
S315080006804FF48073C2F804334FF06043114AC3F83D
S31508000690B02F114AC3F8802ED3F8002E42F4807288
S315080006A0C3F8002EFF2283F82020D3F8002E22F468
S315080006B08072C3F8002E03B05DF804FB7C9F000827
S315080006C000D0035000ED00E0FF030040F8590D008C
S315080006D0000004E055CEACC50900010038B50D464A
S315080006E0044620B94FF4AE61044804F002FE2046E1
S315080006F0E46824F00304AC42F9D138BDC88900087F
S3150800070070B50D46044620B94FF4B571104804F08B
S31508000710F0FD25B940F26B110D4804F0EAFD636857
S3150800072023B94FF4B6710A4804F0E3FD63681A6802
S31508000730084B9A4204D040F26D11054804F0D9FDE1
S315080007402B46217860680122BDE8704000F02CBA7B
S31508000750C8890008000004502DE9F04F8DB00E46F8
S315080007600546079220B94FF49E61AB4804F0C1FDD7
S3150800077026B940F2F141A84804F0BBFD6B6823B9DD
S3150800078040F2F241A44804F0B4FD6B681A68A34B22
S315080007909A4204D040F2F3419F4804F0AAFD6B68E0
S315080007A01F6827B940F2F6419B4804F0A2FD2B7852
S315080007B0019307F095FD2A7D0346012A07D107F024
S315080007C08AFD4FF0020948460DB0BDE8F08F079A3A
S315080007D012B16A7D002AF2D1184607F07CFD002383
S315080007E034460593002C38D107F07AFD0199044662
S315080007F0384607F087F8079B0BB101232B75286944
S31508000800002840F0028173692B61079B33B10021F0
S315080008102869FFF763FF716904F094FD3023019A94
S3150800082003FB02731A6F012A00F2FA8072693846CE
S3150800083042F0030201991A6707F04AF8002800F007
S31508000840EF803846019902F07DFA012320466B7540
S3150800085007F041FD4FF00009B5E7237B022B04D9C9
S3150800086040F212516C4804F044FDA36894F80C80D9
S315080008707BB14FF0FF3202FA08F233EA020B08D1D5
S31508000880B8F1010F0CD0B8F1020F2BD0B8F1000F58
S315080008900DD02846716904F05EFD4FF0210992E7F4
S315080008A02268D107F5D4626812F0010FF1D16269A6
S315080008B023FA08F3049212B1B3F5006FEDD8DA0AF9
S315080008C0C3F30A030292069313B113460133029344
S315080008D0049B0B9300230393029B9B4509D1059424
S315080008E0A4697FE722689207D3D1626812F0030FE2
S315080008F0DCE7049B002B75D128460BA9FFF700FF00
S315080009008146BBF1000F01D10B9B6361B9F1000F62
S3150800091040F08B800B9A137C43F001031374226812
S315080009200BFA08F302EBC3220992626802EBC32AA8
S31508000930029B581E83455BD1069B002B08BF4FF4CC
S315080009400063617C0B9A834514BF002101F0010105
S31508000950107C94F810C061F34100E17B10740331F8
S3150800096001F00301089109998CF0010C94F80D9097
S31508000970A07B94F80CE0013BC2E9011A4FEACC0AC5
S315080009809BB24AF4801A4AEA031A09F00F0903309F
S315080009904AEA094A00F003004AEA4C5A08994AEA20
S315080009A000630EF0030E43EA8E6343EA017311688F
S315080009B023F4400321F07F4121F47D1123F4004301
S315080009C021F47F5123F0040321F03B010B4313600C
S315080009D0039B83B11146184604F0B4FC0BF1010BD6
S315080009E0039279E7142200210B9804F024FF96E776
S315080009F04FF40063A5E7059B002BEFD003995869D0
S31508000A00FFF76CFE0B9A1146E6E70021FFF766FE34
S31508000A10716904F097FCF8E6C889000800000450DC
S31508000A203846019902F046F90FE72846716904F03D
S31508000A3092FCC8E6F8B50E46054620B94FF409718A
S31508000A401E4804F056FC6B6823B940F225211B4862
S31508000A5004F04FFC6B681A68194B9A4204D040F2AE
S31508000A602621164804F045FC2C78072C04D940F2B8
S31508000A702921124804F03DFC07F032FC6B7D07463D
S31508000A801BB107F028FC0420F8BD0E4DA40096B152
S31508000A90336823F47C1323F00F0323B140F23E217D
S31508000AA0064804F026FC33682C446360384607F091
S31508000AB012FC0020E8E725446E60F7E7C8890008BD
S31508000AC00000045000400450072A2DE9F047044668
S31508000AD00E4615469A4604D940F29D112D4804F053
S31508000AE008FC24B94FF4CF712A4804F002FC2A4BBB
S31508000AF0002E08BF1E46294B32689A4204D04FF48E
S31508000B00D471244804F0F5FBD6F8009007F0E8FB0A
S31508000B1029468046484606F007FF074628B140465C
S31508000B2007F0D9FB0420BDE8F087089B2946C4E9ED
S31508000B300330A082666030462570C4F808A004F029
S31508000B403EFC6368986807F00CFC154B986807F03C
S31508000B5008FC39462046FFF76DFF072D15D82246B3
S31508000B602946384602F0EEFB29460E4A384602F078
S31508000B70D1FB012309F58052AB40536343F0004390
S31508000B8029464846536502F0A7F8404607F0A3FBF6
S31508000B900020C8E7C8890008849F000800000450A0
S31508000BA0A89F00088177000810B51C461BB9472185
S31508000BB0064804F09EFB012223461421104602F043
S31508000BC0EDFD10B100231920236010BD6C8A0008C2
S31508000BD070B5044601260C4D04B970BD94FAA4F00C
S31508000BE0B0FA80F006FA00F224EA0204C200AA5813
S31508000BF00F2805EBC001C8BF1038002AECD0496899
S31508000C00C0B29047E8E700BFAC0F002008B50C4813
S31508000C1007F0A7FB192002F019FC28B1192002F0E9
S31508000C202DFC192002F0F8FB1A2002F00FFC28B15F
S31508000C301A2002F023FC1A2002F0EEFB002008BD61
S31508000C407C9F0008F8B50D461746044628B916488D
S31508000C50892104F04EFB2220F8BD0F2903D98C21E7
S31508000C60114804F046FB2378DBB1012B03D0022B95
S31508000C7017D0032B04D13F236278D340DB0703D474
S31508000C808D21094804F035FB07F02AFB06463A464B
S31508000C902946204601F0A2FF304607F01CFB00203B
S31508000CA0DAE740F2FF33E7E71D8B000810B5044684
S31508000CB028B90F48CF2104F01CFB222010BD037869
S31508000CC09BB1012B03D0022B0FD0032B04D13F235A
S31508000CD06278D340DB0703D4D221054804F009FB28
S31508000CE0204606F0A1FD0020E8E740F2FF33EFE7D3
S31508000CF01D8B000810B5044628B90F48DF2104F0FB
S31508000D00F8FA222010BD03789BB1012B03D0022BE1
S31508000D100FD0032B04D13F236278D340DB0703D4DB
S31508000D20E221054804F0E5FA204601F0F7FE002026
S31508000D30E8E740F2FF33EFE71D8B000870B50D4674
S31508000D40044600B131B914484FF4817104F0D1FA60
S31508000D50222070BD0378DBB1012B03D0022B17D0FC
S31508000D60032B04D13F236278D340DB0704D440F237
S31508000D700511094804F0BDFA07F0B2FA06462046FE
S31508000D8001F0F6FE2870304607F0A5FA0020E0E7E5
S31508000D9040F2FF33E7E700BF1D8B000808B501F0F6
S31508000DA013FF054B00F0553020F05020C3F82004FF
S31508000DB0BDE80840FFF70CBF00E0035008B501F096
S31508000DC003FF054B00F0AA3020F0A020C3F820044A
S31508000DD0BDE80840FFF7FCBE00E0035013B5044623
S31508000DE00A4807F0BEFAA2780421B2FA82F22378FA
S31508000DF052098DF8043063780DEB01008DF8053043
S31508000E00FFF720FF002002B010BD00BF7C9F00083E
S31508000E10044BD3F88420D206FBD4D3F88400C0F35D
S31508000E20811070470040005038B5104B0546D3F87E
S31508000E3000310C4603F00303022B0BD0032B0DD015
S31508000E40012B0FD106F0BCFB032305B1286004B1C2
S31508000E50236038BD06F012FC0923F6E706F0B6FB58
S31508000E600823F2E701230020EFE700BF00800050C7
S31508000E7038B5104B0546D3F840310C4603F003034A
S31508000E80022B0BD0032B0DD0012B0FD107F02EFA16
S31508000E900A2305B1286004B1236038BD06F0EEFBCD
S31508000EA00923F6E707F025FA0C23F2E701230020C9
S31508000EB0EFE700BF0080005038B5104B0546D3F861
S31508000EC060310C4603F00303022B0BD0032B0DD025
S31508000ED0012B0FD107F00AFA0A2305B1286004B1DD
S31508000EE0236038BD06F0CAFB0923F6E707F001FAC6
S31508000EF00C23F2E701230020EFE700BF0080005033
S31508000F0038B5104B0546D3F840320C4603F00303B8
S31508000F10022B0BD0032B0DD0012B0FD107F0E6F9CE
S31508000F200A2305B1286004B1236038BD06F0A6FB84
S31508000F300923F6E707F0DDF90C23F2E70123002081
S31508000F40EFE700BF0080005038B5124B0546D3F8CE
S31508000F5080300C4603F00303022B0BD0032B0DD075
S31508000F60012B0FD106F0F2FA0E2305B1286004B161
S31508000F70236038BD06F02EFB0723F6E706F0E0FAF5
S31508000F800623F2E7044841F2013104F0B2F90023DE
S31508000F901846EAE700800050B38B000838B51A4BAC
S31508000FA00546D3F820010C4600F00700062821D88C
S31508000FB0DFE800F028040C1410181C0006F0C0FA2C
S31508000FC0052305B1286004B1236038BD06F0F8FA98
S31508000FD00323F6E706F0FEFA0723F2E706F0ECFA33
S31508000FE00223EEE706F0ACFA0623EAE706F0E8FA8B
S31508000FF00423E6E7054841F27E3104F07AF9002336
S315080010001846DEE70123DCE700800050B38B0008B2
S3150800101038B5194B0546D3F828310C4603F00703B3
S31508001020013B052B20D8DFE803F003131B0F0B1732
S3150800103006F086FA052305B1286004B1236038BD99
S3150800104006F07EFA0623F6E706F0C4FA0723F2E767
S3150800105006F0B6FA0323EEE706F0B2FA0423EAE747
S3150800106006F0AAFA0223E6E7044841F2781104F0EA
S3150800107040F900231846DEE700800050B38B0008CD
S31508001080002337B50193194B0546D3F820320C4691
S3150800109003F00703042B1FD8DFE803F025030F141A
S315080010A01900002101A8FFF7B3FF12230DB1019A19
S315080010B02A6004B1236003B030BD06F08BFA07231B
S315080010C00190F3E707F012F90A230190EEE706F01C
S315080010D0D5FA09230190E9E741F23511044804F0ED
S315080010E008F90023E2E70123E0E700BF008000508B
S315080010F0B38B0008F7B50027144B0197D3F8804146
S31508001100064604F00304022C0D4614D0032C0DD019
S31508001110012C14D1394601A8FFF740FF10240EB15F
S31508001120019B336005B12C6003B0F0BD06F052FA9E
S3150800113007240190F3E706F03FFA0190EFE741F242
S31508001140E341034804F0D5F83C46E8E70080005040
S31508001150B38B000838B5164B0546D3F800020C4683
S3150800116000F00700042819D8DFE800F020030B0F69
S31508001170130007F0BBF80A2305B1286004B1236001
S3150800118038BD06F07BFA0923F6E707F0B2F80C2318
S31508001190F2E706F0FBF90F23800AEDE7054841F26E
S315080011A0A15104F0A6F800231846E5E70123E3E772
S315080011B000800050B38B000838B5164B0546D3F8A7
S315080011C008020C4600F00700042819D8DFE800F0EA
S315080011D020030B0F130007F089F80A2305B12860CE
S315080011E004B1236038BD06F049FA0923F6E707F08B
S315080011F080F80C23F2E706F0C9F90F23800AEDE719
S31508001200054841F2D95104F074F800231846E5E779
S315080012100123E3E700800050B38B0008002337B5AD
S315080012200193184B0546D3F860320C4603F00703C2
S31508001230013B032B1FD8DFE803F0020E1914002127
S3150800124001A8FFF7ABFE10230DB1019A2A6004B17D
S31508001250236003B030BD002101A8FFF709FE112362
S31508001260F2E706F0B7F907230190EDE706F0A4F9CF
S3150800127002230190E8E741F2DC11034804F039F84B
S315080012800023E1E700800050B38B0008002337B540
S315080012900193184B0546D3F894320C4603F007031E
S315080012A0013B032B1FD8DFE803F0020E19140021B7
S315080012B001A8FFF773FE10230DB1019A2A6004B145
S315080012C0236003B030BD002101A8FFF7D1FD11232B
S315080012D0F2E706F07FF907230190EDE706F06CF9CF
S315080012E002230190E8E741F20F21034804F001F8D0
S315080012F00023E1E700800050B38B000808B5334BA4
S3150800130098424FD027D8324B984245D017D8314B00
S3150800131098423ED00AD838B12F4B984239D041F27C
S31508001320B8412E4803F0E5FF002034E02C4B9842E4
S315080013302FD02C4B9842F2D12B4B586E2BE02B4BCF
S3150800134098422CD003F5371303F5D8639842E6D1B3
S31508001350254B986F1FE0264B98422FD00CD8254B6B
S31508001360984223D0244B984224D0244B9842D6D175
S315080013701D4BD3F884000EE0214B984222D003F58A
S31508001380740303F510539842C9D1174BD3F8980044
S3150800139001E0154B986D08BD134B186FFBE7124B10
S315080013A0586FF8E7104BD3F88000F4E70E4BD3F8E4
S315080013B08800F0E70C4BD3F88C00ECE70A4BD3F81F
S315080013C09000E8E7084BD3F89400E4E780BA8C016C
S315080013D0405DC60080841E0040420F00B38B0008A3
S315080013E000093D00C0CF6A000080E00F0024F40029
S315080013F0007E560380D54302006CDC020048E801F3
S315080014000090D003F8B505460F46144606F05FFF70
S31508001410064625B94FF49C71064803F06AFF2B6807
S3150800142030465C403C405C402C60BDE8F84006F025
S3150800143049BF00BF428C0008B0F5207F10B52DD0FB
S3150800144009D8B0F5007F23D003D868B1B0F5C07FBE
S315080014500AD000241AE0B0F5607FFAD1124BD3F80F
S315080014608040C4F3011411E00F4B1B6F13F4604F57
S31508001470C3F303340AD0072C08D00F2C06D0032C4C
S3150800148004D04FF42771094803F033FF601C10BDE0
S31508001490054BD3F89040C4F30464F7E7024B1C6F7E
S315080014A0C4F38024F2E700BF00800050B38B000825
S315080014B04FF4803238B5104B04469A6600200D4624
S315080014C0FFF7BAFF41F671320C4B6043DC69DA6309
S315080014D05A6804F4803422F440125DB908498842F7
S315080014E094BF00200120000502435A600CB1002277
S315080014F0DA6338BD0349F2E7009000500000035054
S31508001500005A6202002D3101002130B5B0F5807F06
S3150800151085B00446CDE9001100F010816CD85E282C
S3150800152062D85E2862D8DFE810F0780061006100B2
S315080015306100610061006100610061006100610095
S315080015406100610061006100610061006100610085
S315080015506100610061006100610061006100610075
S31508001560610061006100610061007800EA007800AE
S31508001570EA00FA00FA00FA00FA00FA00EA000401A2
S3150800158081009E001A018100EA00EA00EA00610073
S315080015906100610061006100610061006100EA00AC
S315080015A0EA00EA00B2002401EA0061006100610075
S315080015B06100610061006100610061006100610015
S315080015C061006100FA007800780078001F01810048
S315080015D081002901C1009600FF00610061006100D9
S315080015E061006100D5007800802878D040F2F74184
S315080015F0694803F07EFE75E0B0F5D06F00F0AF8065
S3150800160036D8B0F5607F00F085801AD8B0F5007F2F
S315080016106BD005D8B0F5C07FE8D105F0B7FF60E01C
S31508001620B0F5207F6BD0B0F5407FDFD105F0AEFF77
S3150800163004464FF42070FFF7FFFEB4FBF0F464088D
S3150800164066E0B0F5B06F74D00AD8B0F5806F66D092
S31508001650B0F5A06FCAD100216846FFF711FD41E039
S31508001660B0F5C06FC2D100216846FFF701FC39E02A
S31508001670B0F5106F78D00FD8B0F5086F00F08880F5
S31508001680B4D8B0F5E06F74D0B0F5F06FAED10021E4
S315080016906846FFF711FC25E0B0F5406F44D016D830
S315080016A0B0F5206F6AD0B0F5286F9FD100213B4B6B
S315080016B00391D3F8703203F00303012B63D0022B96
S315080016C064D041F23A21344803F013FE5EE0B0F5E7
S315080016D0486F8BD100216846FFF7D8FD02E005F078
S315080016E035FF0090009805B030BD05F02FFF054680
S315080016F02046FFF7A1FEB5FBF0F50095F2E705F0E9
S3150800170045FF04464FF42070FFF796FEB4FBF0F44D
S315080017100094E7E701A8FFF717FC019DE8E7002119
S315080017206846FFF73BFCDDE700216846FFF770FCDB
S31508001730D8E700216846FFF7DDFCD3E74FF0E02342
S3150800174002911B695B0705D505F020FF0290029BF5
S315080017500093C7E703A902A8FFF78AFBF7E700216A
S315080017606846FFF7F7FCBDE700216846FFF724FD4A
S31508001770B8E700216846FFF7C3FBB3E700216846D0
S31508001780FFF74CFDAEE703A8FFF772FB039BDFE705
S315080017906846FFF749FBA5E7B38B000800800050B1
S315080017A008B58020FFF7B0FE034B98429EBF4FF462
S315080017B08032024B1A6708BD005A620200A0005028
S315080017C01FB503460020B3F5807F019000F0D08056
S315080017D063D85D2B54D84C2B06D82D2B46D8232BF3
S315080017E02AD840F2F151B2E04D3B102BF9D801A2AC
S315080017F052F823F067190008E3170008E3170008F2
S31508001800E3170008FB180008E3170008E3170008A9
S31508001810C119000819190008BF180008B7190008E7
S31508001820E3170008E3170008E3170008E3170008A2
S31508001830E3170008CB190008243B092BD1D801A2CD
S3150800184052F823F067190008671900086719000895
S315080018506719000867190008E317000857190008F0
S31508001860E3170008DB1800089D1900083D2B00F057
S3150800187090803E2BB5D1002001A9FFF741FB6EE011
S31508001880802BAED1574B1B6F03F00703013B032B8D
S315080018905BD8DFE803F058515456B3F5F06F78D0AB
S315080018A020D8B3F5B06F56D00ED8B3F5607F7ED08A
S315080018B097D3B3F5806F56D0B3F5A06F91D10020BA
S315080018C001A9FFF7DDFB4AE0B3F5D06F66D0B3F5A3
S315080018D0E06FD0D0B3F5C06F83D1002001A9FFF720
S315080018E0C7FA3CE0B3F5206F6AD00BD8B3F5086F9A
S315080018F059D0B3F5106F7FF474AF002001A9FFF734
S315080019005BFC2CE0B3F5406F55D0B3F5486F5CD05F
S31508001910B3F5286F7FF465AF324BD3F8703203F016
S315080019200303012B56D0022B5AD041F23A212E48F6
S3150800193003F0DFFC002300E0052301930FE00323F7
S31508001940FBE70823F9E70223F7E740F2295126487F
S3150800195003F0CFFC03E0002001A9FFF7CBFB0198B9
S3150800196005B05DF804FB002001A9FFF717FBF6E7B1
S315080019704FF0E02302901B695B0705D505F006FECC
S315080019800D230393039BD8E703A902A8FFF770FA70
S31508001990F8E7002001A9FFF78FFAE0E7002001A980
S315080019A0FFF7D8FBDBE701A9FFF73EFAD7E701A95E
S315080019B0FFF7CAFAD3E7002001A9FFF729FBCEE70C
S315080019C0002001A9FFF72AFCC9E7002001A9FFF7B3
S315080019D05DFCC4E7002103A8FFF74AFA1123ACE728
S315080019E01523AAE700800050B38B00084FF4803215
S315080019F0074B0849586E03F580535A664B6A23F01D
S31508001A0001034B62C3035CBF034B5A66704700BFB2
S31508001A100080005000C0075000A0005038B5036889
S31508001A2004460F2B04D940F657417E4803F061FC63
S31508001A3063680F2B04D940F65A417A4803F059FCDB
S31508001A40A3680F2B04D940F65D41764803F051FC94
S31508001A50237B0F2B04D94FF44661724803F049FCE7
S31508001A60637B0F2B04D940F663416E4803F041FCB3
S31508001A70A37B3F2B04D940F666416A4803F039FC3C
S31508001A80E37B3F2B04D940F66941664803F031FCF5
S31508001A902369032B04D940F66C41624803F029FCFC
S31508001AA06369032B04D940F66F415E4803F021FCB5
S31508001AB0E369032B04D940F672415A4803F019FC2E
S31508001AC08020FFF77DFE032800F08A804FF48012FD
S31508001AD0554B4FF0A0615A6645F60E03534AC2F8B5
S31508001AE08030534B99624FF4803103F580539962E5
S31508001AF0936DD903FCD4916D11F08041FBD1D4E9E3
S31508001B0000031B0543EA0063E07B0343207B43EAAB
S31508001B100043607B43EA0033A07B43EA80131361EA
S31508001B209069D4E904531B0643EA856300F0004034
S31508001B300343A07EE57E0343207E43EA0043607E9E
S31508001B4043EA00239361136AE06923F00F03002830
S31508001B5043EA000343EA850314BF0125002543EA47
S31508001B60C5031362334D3CD194F82430916A94F836
S31508001B702000DB00294043EA40130B4394F8211068
S31508001B8043EA011343F4803393622B49274A936D42
S31508001B9031EA0303FBD14FF080712548816213694E
S31508001BA0A56823F4700343EA055313614FF0004315
S31508001BB0836194F822300BB9204B996294F823304C
S31508001BC03BB94FF480321D4B9A62184A936D5B00FD
S31508001BD0FCD494F825301BB1144B194AC3F880205D
S31508001BE038BD022808D11161164891614FF4085290
S31508001BF04FF47F41FFF706FC0C4994F822308A6AB5
S31508001C0094F820001B062A4043EA4013134394F82D
S31508001C10242043EAC20394F8232043EA02438B6252
S31508001C20D7E700BFB38B0008009000500040005A69
S31508001C300050005AC7FFFEFE030001000060005A6C
S31508001C40F1A7FFFF3440005A014B93F90000704793
S31508001C50FC140020436810B5072B044604D940F647
S31508001C60BF612A4803F045FBA368032B04D940F655
S31508001C70C161264803F03DFB2378032B04D940F6BF
S31508001C80C361224803F035FB94F90130002B04DACE
S31508001C9040F6C5611D4803F02CFB4FF400011C4AB1
S31508001CA0637851664FF4D151022002F5B832516279
S31508001CB018494F2B48604FF0010028BF4F2301F504
S31508001CC0805148601169C903FCD4217843EA01238D
S31508001CD05361D4E901131B0143EA0123617B0B43DA
S31508001CE0217B43EA41039360E37BA17B1B0143EA23
S31508001CF04113617C0B43217C43EA41035360A37C77
S31508001D0013B16FF4D153536210BD00BFB38B0008F3
S31508001D100090005000100250014B1880704700BF19
S31508001D20FA140020014B1880704700BFF8140020F1
S31508001D304FF4800208B5184B5A660223174A5360B7
S31508001D40936813F48033FBD1012822D105F038FCBF
S31508001D50134B984215D003F5122303F5F8639842FE
S31508001D6013D0104B00EB8002400AB3FBF0F3520A83
S31508001D700A49CA620B6301234B620022074B5A6069
S31508001D8008BD45F67A13084AF2E745F61A03074AE4
S31508001D90EEE75362F1E700BF0090005000400250A2
S31508001DA000F0490264666666D8B80500BBCF050030
S31508001DB0B0F5207F38B576D00ED8B0F5007F60D064
S31508001DC003D890B3B0F5C07F2FD0BDE8384040F2B5
S31508001DD053313D4803F08DBAB0F5607FF5D13B4AE3
S31508001DE04C1ED2F8FC5015F080751EBFD2F8FC3098
S31508001DF023F08073C2F8FC30032C04D940F21E315C
S31508001E00314803F076FA324AD2F8803023F03003AC
S31508001E1043EA0413C2F8803035B12C4AD2F8FC30B4
S31508001E2043F08073C2F8FC3038BD102901F1FF3445
S31508001E3003D8284BCB40DB0704D440F2EF212248D5
S31508001E4003F057FA03F006FB03F012FB4FF4803158
S31508001E50214B1F4A1967136F23F4704343EA04336F
S31508001E60136705F093FB0446FEF7D2FFC0F10201A3
S31508001E70204603F0F7FA00F049F8BDE83840FFF7C6
S31508001E808FBC4C1E1F2C04D940F236310E4803F085
S31508001E9030FA0F4AD2F8903023F0F85343EA046335
S31508001EA0C2F89030C0E74C1E012C04D94FF44F718C
S31508001EB0054803F01EFA064A136F23F4806343EAC3
S31508001EC084231367B0E700BFB38B000800ED00E07A
S31508001ED000800050160101000090005008B501214D
S31508001EE0022000F077F94FF42070FFF7A5FA054BAA
S31508001EF0187003F0AFFA03F0BBFA4FF48032024BC6
S31508001F001A6708BD841400200090005008B54FF4E5
S31508001F10C070FFF7F9FABDE808400449884294BF43
S31508001F20012102214FF42070FFF742BF80F0FA0228
S31508001F3038B5044605F02AFB0546FEF769FFC0F1E9
S31508001F400201284603F08EFA0121002000F096F9D6
S31508001F502CB1FFF7DBFFBDE83840FFF721BC034B88
S31508001F604FF420701978FFF723FFF4E78414002054
S31508001F702DE9F0410546FFF7C1F9431E0333044630
S31508001F8004D940F6A621394803F0B3F94FF4C02224
S31508001F90374B5A6603F598335A68012A04D13549EE
S31508001FA04A605A689207FCD48020FFF709FC052886
S31508001FB007D103F04FFA03F05BFA4FF480322C4B4B
S31508001FC01A672D4B24F040749D423DD02B4B9D4201
S31508001FD03DD005F0B5FA8542064603D901212846C3
S31508001FE000F04CF9264FFB6813F0060FFBD1D7F823
S31508001FF00880BC60BB68634013F4F81F2AD12846E2
S31508002000FEF7F0FA8020FFF7DBFB052814D105F070
S31508002010BDFA8542044604D240F60231134803F05D
S3150800202068F9FEF7F5FEC0F10201204603F01AFA38
S31508002030FFF76CFFFFF7B4FBB54214D8BDE8F041D3
S315080020400121002000F01AB944F00074C1E744F0F9
S315080020508074BEE740F6F121044803F04AF9354694
S31508002060C7F80880CEE7BDE8F08100BFB38B00084B
S315080020700090005000E0015040420F0080841E008E
S315080020800000015038B53D4B0546984258D026D831
S315080020903B4B984264D015D868B13A4B984239D030
S315080020A0394B984236D0394B984233D041F2CB213E
S315080020B0374803F01EF9002441F26501344803F05D
S315080020C018F92DE0334B98424ED003F5371303F534
S315080020D0D8639842EAD1304BD3F8B8401DE02F4B6D
S315080020E0984235D00CD82E4B98422DD003F5742340
S315080020F003F510739842D9D1274BD3F8C4400CE0A6
S31508002100284B984228D0284B9842CFD1224BD3F857
S31508002110D04002E0204BD3F8A040631E0333CBD84F
S315080021204FF40022214B24F040745A66174B9D4207
S315080021301ED0144B9D421ED04FF0B4439C6038BD50
S31508002140154BD3F8BC40E8E7134BD3F8C040E4E797
S31508002150114BD3F8C840E0E70F4BD3F8CC40DCE787
S315080021600D4BD3F8A440D8E70B4BD3F8B040D4E7CF
S3150800217044F00074E0E744F08074DDE70024F400DE
S31508002180404B4C0080841E0000093D0040420F0071
S31508002190B38B0008809698000080E00F80BA8C0107
S315080021A0C0EA21010048E801005A62020090005086
S315080021B0024A536B0342FCD1704700BF00400950E6
S315080021C0034A0179D36E23F030030B43D366704775
S315080021D000400050F8B50446244BD3F88420D006B6
S315080021E0FBD4D3F88430C3F381139C423CD005F06A
S315080021F0ADF9012C05460BD11D4B984204D940F286
S31508002200A6711C4803F075F80121284603F02AF93F
S3150800221006F05DF84FF00072174B07465A662046DF
S3150800222003F02BF94FF48063104E621E9340336718
S31508002230736E9A010AD5384606F044F8022C13D173
S315080022402846BDE8F840002103F00CB9D6F88430DA
S315080022509B06F0D4D6F884309906E9D540F2BE71CB
S31508002260044803F046F8E3E7F8BD00BF0040005015
S31508002270005A6202D18C00080060005010B50C4666
S3150800228008B905F063F9074B21461B783BB1064BA5
S31508002290984204D80120BDE81040FFF79BBF0220F2
S315080022A0F9E700BF85140020005A62024FF0004289
S315080022B038B5244B244C5A664AF6CD33656C01462C
S315080022C005F00105236430BB0120FFF771FF636841
S315080022D0DB0708D4002415B11B4B1C4A1A6403F00B
S315080022E0CDF8204638BD1A4B58600846194B226B64
S315080022F0D20705D4984201D10724ECE70130F6E766
S315080023009842E7D1F8E70132236B13F0080305D0AA
S315080023108A42F8D1F0E700220E49F5E78A42EBD067
S3150800232020210B4A91620121A2F58052516006498B
S31508002330084A886A800603D49342DDD00133F8E759
S315080023409342DEE700900050004009503254FFFFE8
S315080023500060095040420F004FF0004238B5164B56
S3150800236001465A664AF6CD33144C154A656C236401
S3150800237043780B205B0043F00103D363FFF718FF94
S3150800238063688A7823F4F87343EA02136360CA78A9
S315080023904B7943EA0223A3600A798B7943EA02233D
S315080023A023610878FFF782FFEB0744BF054B2364D8
S315080023B003F064F8012038BD009000500040095031
S315080023C0004000503254FFFF0F2870B5044605D967
S315080023D040F63B71124802F08CFF0F244FF0004282
S315080023E0104B11495D6E03F580535A664AF6CD3394
S315080023F04E6C80200B64FFF7DBFE0B6A23F00F039D
S3150800240023430B62F30744BF084B0B64002DA2BF9E
S315080024104FF00042064B5A6603F030F870BD00BF15
S31508002420D18C000800800050004009503254FFFF4C
S3150800243000A00050F8B507460D461E46144622B9B8
S3150800244040F255112F4802F054FF25B94FF4207079
S31508002450FFF75AF80546402E41D009D87EB1202EFE
S3150800246017D0BDE8F8404FF4CE71264802F041BFB8
S31508002470602EF6D1B4EB950F3ED804230DE0B4EBED
S31508002480151F04D940F287111E4802F032FF1023A7
S3150800249003E0B4EBD50F1CD808235C43620802EBB3
S315080024A04512B2FBF4F2184D203AB5EBC20F4FEACB
S315080024B0C20404D240F2B311124802F01AFF602295
S315080024C007F500539A602C4007F580539E60FC611F
S315080024D0F8BD4FF4C6710B4802F00BFFDCE7062384
S315080024E0B5FBF3F3A34201D30623D6E740F29111D5
S315080024F0044802F0FEFEF7E74FF4CB71014802F0FC
S31508002500F8FEBAE7608D0008F8FF7F00124B10B599
S315080025109842044604D040F26F41104802F0E9FEA2
S31508002520012104F58053596040F6AA6341F2050279
S31508002530636100230A48A360E365E26004F500527C
S315080025402361E361E36490640348A365844204BF9E
S3150800255023656365516010BD00C00550608D000895
S31508002560FFFF01002F4B70B5984204460D4604D074
S3150800257040F226312C4802F0BCFE2046FFF7C6FF83
S31508002580012304F580567360AB7C1BB1A36843F046
S315080025908043A360EB7C4BB1224B9C4202BF2A7D51
S315080025A0A3F51033C3F8C8218023F3652A8A6B7B09
S315080025B020461343EA891343E3602B7BD5E90112CE
S315080025C0FFF738FF6B7D1BB1A36843F48033A36024
S315080025D0AB7D1BB1A36843F40043A360EB7D2A7E61
S315080025E01B07120502F4E00203F0E0431343A36558
S315080025F06B7E9A1E012A4FF0020209D80B49032B5B
S31508002600C1F8202709D10423F3652B78636170BDCF
S315080026100749012BC1F82027F4E7042204F50053E3
S31508002620DA65F2E700C00550608D000800D0035057
S3150800263000E0035038B50A4B044698420D4607D0C9
S31508002640084B984204D04FF4AA61074802F051FE9D
S315080026506368DB0702D5636D2B42F9D138BD00BF2D
S315080026600000015B00000A50F18D00080B4B10B505
S315080026709842044607D00A4B984204D040F261516A
S31508002680084802F036FE204640F6FF71FFF7D2FFF3
S31508002690012304F58054636010BD00BF0000015B90
S315080026A000000A50F18D0008094B10B598420446FF
S315080026B007D0084B984204D040F27351064802F0FE
S315080026C018FE6368012B04BF04F50054636010BD4F
S315080026D00000015B00000A50F18D0008084B10B598
S315080026E09842044607D0074B984204D040F28F51CF
S315080026F0054802F0FEFD63689B07FCD410BD00BFC9
S315080027000000015B00000A50F18D00080B4B10B564
S315080027109842044607D00A4B984204D040F2A25188
S31508002720084802F0E6FD204640F6FF71FFF782FFF3
S31508002730012304F58054A36310BD00BF0000015BAC
S3150800274000000A50F18D00080B4B10B5984204465C
S3150800275007D00A4B984204D040F2B351084802F019
S31508002760C8FD204640F6FF71FFF764FF022304F513
S315080027708054A36310BD00BF0000015B00000A502F
S31508002780F18D00080B4B10B59842044607D00A4B4A
S31508002790984204D040F2C451084802F0AAFD2046E7
S315080027A040F6FF71FFF746FF042304F58054A36340
S315080027B010BD00BF0000015B00000A50F18D000843
S315080027C00B4B10B59842044607D00A4B984204D0E2
S315080027D040F2D551084802F08CFD204640F6FF71BC
S315080027E0FFF728FF082304F58054A36310BD00BF34
S315080027F00000015B00000A50F18D00080D4B10B572
S315080028009842044607D00C4B984204D04FF4C56151
S315080028100A4802F06EFDA36CDA0704D540F22B6174
S31508002820064802F066FDA36C1B0600D410BDE36BD8
S31508002830F9E700BF0000015B00000A50F18D0008AF
S315080028400E4B10B59842044607D00D4B984204D05B
S3150800285040F244610B4802F04CFDA36C9A0704D57C
S3150800286040F24761074802F044FD4FF4807204F5D0
S3150800287080539A63A36C9B01FCD410BD0000015BD6
S3150800288000000A50F18D0008234B10B59842044603
S3150800289007D0224B984204D04FF4AC71204802F07E
S315080028A028FD2046FFF78CFF2046FFF74DFF5021F5
S315080028B02046FFF7BFFE2046FFF7F6FE2046FFF745
S315080028C00DFF2046FFF79AFF2046FFF7B9FF0423BE
S315080028D004F5805104F500520B6113610B61136115
S315080028E00B6113610B611361202341F2020123611D
S315080028F00023E360A36061614FF4A0216162094986
S31508002900E3612362A361A365A362E3622365D164DD
S3150800291023636363236310BD0000015B00000A5054
S315080029208C8E0008FF3F0D035B4B70B5984204463A
S315080029300D4607D0594B984204D04FF48371584836
S3150800294002F0D7FC25B94FF48471554802F0D1FC42
S315080029502046FFF799FF23692A7823F08703134354
S315080029606A7A43EA420343F080032361A368AA7A9A
S3150800297023F0030343EA420343F00103A3606369B8
S315080029802A7A23F00F031343636123696A6823F0E5
S315080029907F4343EA02632361EB68002B7BD02269FD
S315080029A0197922F0F80242EAC112197842EA41126C
S315080029B0D97842EA0112D97A42EAC102997942EAF9
S315080029C081122261E268987C22F0F04222F4702299
S315080029D042EAC062D87C597942EA0042987842EACB
S315080029E0802242EAC132E260A268987A22F4C042A2
S315080029F042EA4032A2605A7804F580509202826018
S31508002A00666ADA7B274802F0030230400243187BE5
S31508002A10000100F070000243587B000200F4E060F9
S31508002A200243987B000300F4E0400243587A00040E
S31508002A3000F47020024362621A8AA26139B1164A0A
S31508002A40944211D174220021D87900F091F9EB68EB
S31508002A509A7902B3104A944211D17022BDE87040A7
S31508002A600021187A00F084B90C4A944201D18022D8
S31508002A70E9E740F277410A4802F03BFCE7E7074AF4
S31508002A80944201D17C22E9E740F29F41BDE87040BB
S31508002A90034802F02EBC70BD0000015B00000A501E
S31508002AA08C8E00088C88F0FF38B50B4B044698428C
S31508002AB00D4607D0094B984204D04FF402710848D6
S31508002AC002F017FCA36C5A06FCD56564A36C1B06BA
S31508002AD0FCD5E06B80B238BD0000015B00000A50EF
S31508002AE08C8E000838B504460D4681B940F2FD21A2
S31508002AF0094802F0FEFBB4FBF5F4013CFF2C04D9AF
S31508002B004FF44171044802F0F4FB204638BD814277
S31508002B10F1D940F2FE21EBE78C8E000810B5044689
S31508002B2020B940F2E621104802F0E3FB2378C3B14E
S31508002B30012B03D0022B14D0032B04D13F23627838
S31508002B40D340DB0704D440F2E721074802F0D1FB63
S31508002B500122637821789A4030235943034B5A500F
S31508002B6010BD40F2FF33EAE7278F000840E0035024
S31508002B7010B5044620B940F20E31124802F0B9FBEE
S31508002B802378E3B1012B03D0022B18D0032B04D1F1
S31508002B903F236278D340DB0704D440F20F3109485B
S31508002BA002F0A7FB30222378534303F1A04303F531
S31508002BB07033186C6378D84000F0010010BD40F2FD
S31508002BC0FF33E6E7278F0008034BD3F82424D3F80E
S31508002BD020041040704700BF00C003502DE9F041A3
S31508002BE00E461746044618B98A212F4802F081FB7B
S31508002BF0237813B3012B03D0022B1ED0032B04D149
S31508002C003F236278D340DB0703D48B21264802F0A2
S31508002C1070FB264BD3F810331BB18C21224802F0E7
S31508002C2068FB0F2E0CD8DFE806F03631313131312A
S31508002C303131313131313131313140F2FF33E0E771
S31508002C4040F2CB11184802F054FB4FF0000820461A
S31508002C50F7B104F0E9FD30220F212078637850435C
S31508002C60072B88BF083B124D95BF9B009B0004307D
S31508002C700C3008FA03F29940284402F000FC86B9A1
S31508002C80204657B1BDE8F04104F0CEBDB046DEE7B8
S31508002C90FFF744FFDFE7B046DDE7BDE8F041FFF7A1
S31508002CA03DBFBDE8F08100BFC08F000800C00350DB
S31508002CB030C0035038B501250729044605FA01F541
S31508002CC004D940F6CE11034802F013FB04F58054EC
S31508002CD0656238BDF290000838B501250729044613
S31508002CE005FA01F504D940F65421034802F001FB20
S31508002CF004F50054256438BDF290000838B504463A
S31508002D000D4619B97A210E4802F0F3FA2B781F2BD3
S31508002D1003D97B210A4802F0ECFA2B781B06A3603C
S31508002D206A78AB7843EA0243A361FF23A3620023D0
S31508002D30A36323644FF0FF3304F50054236538BDBD
S31508002D405990000838B501250729044605FA01F502
S31508002D5003D9F621054802F0CCFABFF35F8F04F5D4
S31508002D60005304F580545D63A56438BD5990000886
S31508002D70B2F5805F70B505460E46144612D39B2100
S31508002D800E4802F0B6FA24F0030404F1A04404F550
S31508002D90603456B90F2D03D9A321084802F0A9FAC1
S31508002DA0256001E0002AEED170BD032D03D9A721C5
S31508002DB0024802F09EFA2D02F2E700BF8B91000846
S31508002DC0054B9A689107FCD45A689207F9D4DA69D0
S31508002DD0002AF6D1704700BF00800A5010B5064C8D
S31508002DE06368DB0703D4A521044802F082FA04F0DD
S31508002DF0AFFD0223236110BD00800A50239200080C
S31508002E0008B5FFF7DDFF0122024B03F580514A6042
S31508002E101A6108BD00800A50044B10B55C68012C85
S31508002E2003D1FFF7DBFF024B5C6010BD00800A5040
S31508002E3000A00A5038B5074DFFF7C2FF6B68044675
S31508002E40012B03D1FFF7E8FFFFF7BAFF2378EB6002
S31508002E5038BD00BF00800A5038B505460C4604F058
S31508002E6081FDBDB96268237812B1127843EAC203BC
S31508002E70627843EA4203A26812B1127843EA8213DF
S31508002E80E27843EA8203226912B1127843EA4223BE
S31508002E90014A936438BD00BF00800A504FF480325F
S31508002EA0084B5A6603F5E6239B691A0B027003F072
S31508002EB03F0242704FF6FF72C3F385134280838048
S31508002EC0704700BF0090005007B56846FFF7E6FF59
S31508002ED0BDF80030B3F5807F11D14FF48012094B4D
S31508002EE00949586E03F580535A664B6B23F0E05335
S31508002EF043F040634B63C3025CBF044B5A6603B09E
S31508002F005DF804FB008000500040005A00A0005005
S31508002F1030B588488BB005F024FA20B140F27931F3
S31508002F20854802F0E6F96C46844D0FCD0FC42B6830
S31508002F30834A2360FF238DF80130D2F84C3113F40D
S31508002F40802340F0EA80D2F850218DF801309DF8B0
S31508002F5001306C46FF2B08BF2C236846794D8DF847
S31508002F600130FEF777FE3220FEF7D6FE0FCD0FC4EE
S31508002F700FCD0FC495E8030084E80300704BD3F81F
S31508002F804C21120300F1C380D3F85041E4B28DF806
S31508002F901940FEF759FE044484F308046A488DF87C
S31508002FA01840FDF725FB6846FEF738FD3220FEF788
S31508002FB0B9FE6648FEF7DCFF6548FFF763F8654823
S31508002FC005F0CFF920B14FF4EB715B4802F091F9A7
S31508002FD0614C0020FEF7ACFEFEF780FF236F002051
S31508002FE023F0070343F003032367FEF7A1FF236FCC
S31508002FF05A4923F474432367D1F8FC2012F08072EF
S315080030001EBFD1F8FC3023F08073C1F8FC300021D4
S31508003010D4F8803023F0030343F00103C4F880306A
S315080030204F4BC3F8801032B14C4AD2F8FC3043F00B
S315080030308073C2F8FC30484CD4F8203123F00703DB
S3150800304043F00203C4F82031D4F8283123F00703EB
S3150800305043F00203C4F82831D4F8803123F003037F
S3150800306043F00103C4F88031D4F8403123F0030358
S3150800307043F00203C4F84031D4F8603123F0030367
S3150800308043F00203C4F86031D4F8403223F0030356
S3150800309043F00203C4F84032D4F8003223F00703A1
S315080030A043F00203C4F80032D4F8083223F00703C9
S315080030B043F00203C4F80832D4F8703223F003034D
S315080030C043F00103C4F87032D4F8203223F0070322
S315080030D043F00103C4F82032FEF788FC4FF0E022E3
S315080030E00020136943F004031361D4F8603223F017
S315080030F0070343F00103C4F86032D4F8943223F08E
S31508003100070343F00103C4F894320BB030BD154BE6
S315080031101C88FF2C88BF5F2439E74FF07E6393F83D
S315080031209C2093F99C30002BFFF611AF8DF80120F7
S315080031300DE700BF6C9F000813940008249F000841
S315080031400080E00F389F0008C017530200B4C4047B
S31508003150C0EA2101709F00080080005000ED00E0E1
S31508003160009000500001E00F07B5094B18689988D0
S315080031709B7900906846ADF804108DF80630FFF785
S31508003180EBF80920FFF720F9002003B05DF804FBEF
S31508003190609F000813B50024064A6846536F43F03B
S315080031A00103536700948DF80440FFF709F8204699
S315080031B002B010BD004000502DE9F04704460E4607
S315080031C021B900F0F7F8064600286DD0337D1F2B8D
S315080031D06CD805F085F80746354B1B68183B13F184
S315080031E0180F10D1DFF8D080D8F80090002C39D10C
S315080031F0424621461C2000F0C9FA0546E0B1384689
S3150800320005F069F805E0A34206D1384605F063F8EB
S3150800321012252846BDE8F0871A68B24201D09B6994
S31508003220DCE7002CF1D06B21224802F062F8384620
S3150800323005F051F82325ECE74FF0010AD8F80040CD
S3150800324000220421307D04F1100300F0A7FA054698
S3150800325080B1BAF1000F02D0204605F0AFF9C8F8E0
S315080032600090CCE7B9F1000F01D1C8F800404FF043
S31508003270000AE5E702460421307D04F1140300F054
S315080032808DFA054618B1206905F098F9E1E7214657
S3150800329060602073A060064841F8186BFDF71CF9BA
S315080032A0304600F067F8AAE72D25B2E70F25B0E704
S315080032B0B4100020C8940008B010002038B50546A0
S315080032C00C4619B9F121114802F013F80DB9104B43
S315080032D01D6805F005F8D5E900311A7D4FF0FF3372
S315080032E093400B43DB4303D104F0F5FF1A2038BDA6
S315080032F0B3FA83F30122C3F11F03DBB29A400A43F0
S315080033006A60237004F0E7FF0020F0E7C89400081D
S31508003310B010002070B50D461646044608B9084B8D
S315080033201C6823681B7DAB4208D904F0D9FF2369C2
S3150800333043F8256004F0CFFF002070BD2120FCE78C
S31508003340B010002070B50D461646044608B9084B5D
S315080033501C6823681B7DAB4208D904F0C1FF63696A
S3150800336043F8256004F0B7FF002070BD2120FCE774
S31508003370B010002013B50468806804F0F2FF0C480A
S3150800338004F0EFFF152000F079F8152000F044F856
S315080033901E23ADF804300023204601A98DF8063017
S315080033A0FFF7ACFC012304F58054636002B010BD3E
S315080033B0749F000800487047849F0008F8B5134DAD
S315080033C06B6D2A6D1340124A002B13659EB202DB01
S315080033D001276EB9F8BD0123E9680E4AC1F3042135
S315080033E08B40284642F82130BDE8F84004F06EBB11
S315080033F0B6FA86F4C4F11F04E4B22146284607FA51
S3150800340004F404F063FB26EA0406E2E7000004502D
S3150800341000200450B81000204C2810B5044608D8DF
S3150800342001236109074A04F01F04A34042F821302A
S3150800343010BD40F23711044801F05BFF002CF7DBA2
S31508003440EEE700BF00E100E06D9500084B2810B5D7
S31508003450044604D94FF4A171064801F04AFF064B09
S31508003460621153F8220004F01F04E040C04300F044
S31508003470010010BD6D95000800E100E0002808DB9A
S3150800348001224309034900F01F008240603341F8D6
S315080034902320704700E100E038B500F110035C2BEB
S315080034A004460D4604D940F20E210E4801F021FFCC
S315080034B00F2D04D940F20F210A4801F01AFF60B215
S315080034C00028ACBF00F16040074B4FEA0515EDB286
S315080034D0ABBF00F5614000F00F0080F800531D54A3
S315080034E038BD00BF6D95000814ED00E010B504F076
S315080034F0F7FE0A4B1A786AB901226FF004041A70AB
S3150800350004F0E9FE204605210134FFF7C5FF4C2CDF
S31508003510F8D110BDBDE8104004F0DDBE87140020C8
S3150800352013B50B4C23788BB900F0AEFA684600F059
S31508003530A3FADDE900010222064B00F0D9FA0123BD
S31508003540054A137000B9237002B010BD1220FBE7BC
S3150800355088140020D8100020FD1400202DE9F04F13
S31508003560B2F1FF3F06460D469146984687B00AD007
S31508003570531EB3F5007F01D21A4204D04FF44271AC
S31508003580794801F0B6FE26B940F20D31764801F0C9
S31508003590B0FE4FF0000A754BB9F1FF3F83F800A063
S315080035A0109B14BF4C460824CDF814A0002B00F03D
S315080035B0D280C3F800A0002D00F0CF807368AB421C
S315080035C040F2CB8004F08CFE073505AA08F0010806
S315080035D025F00705CDE900A207464A46434629468F
S315080035E0304602F01AF8DDF814908346B9F1000F58
S315080035F000D030B9384604F06EFE192007B0BDE891
S31508003600F08FB9F802A031694FEACA02C0EBCA0ABC
S315080036100139BAF1270F31617DD9B8F1000F54D1BC
S31508003620854205F1080A4BD022464946304601F044
S315080036303BFF04460590A244504601F0EAFF05996F
S3150800364005F10F004A88C308A2EBD002AAF80220A7
S31508003650CA88AAF80430002A34D0D31A9BB201EBE0
S31508003660C202AAF8063093808B88ED08A380BAF8C0
S3150800367004304A46E380514600233046658002F00E
S3150800368016F8B368F26808339342B36088BFF360EC
S31508003690237843F001032370336901333361628869
S315080036A0B368083403EBC203F268B360934288BF79
S315080036B0F360109B38461C6004F00DFE00209DE761
S315080036C04C46B8E7AAF80620CEE709EB0A042046D6
S315080036D0039201F09EFF0BF10703DB08059963804F
S315080036E00AF10703DB08A380CB8893B1DB00039AB2
S315080036F0D81D821A5A44C2F3CF020B44E2809A803C
S31508003700A3880AF1FF3A4FEADA0AA1F802A0CB80A9
S31508003710B7E7E380F4E7B8F1000F20D009F1080510
S31508003720B5FBF4F304FB1355B5FA85F56D0985B9B0
S3150800373022464946304601F0B7FE044623784A46F3
S3150800374043F00103237021460123304601F0AFFF01
S31508003750A5E74C46F2E7222050E721204EE72B1A30
S315080037605D425D41E3E700BF26960008FD14002090
S3150800377007B5009313460A4601460348FFF7EEFECF
S3150800378003B05DF804FB00BFD810002013460A46B4
S315080037900146014801F0EEBED810002007B5009397
S315080037A013460A460146034801F0EEFE03B05DF8EB
S315080037B004FB00BFD81000202DE9F74F0D4614462C
S315080037C09A46064620B940F2E441A64801F091FD22
S315080037D0BAF1000F00F042810023CAF8003073687E
S315080037E0A34240F23D815DB9002C00F03981534671
S315080037F02A462146304603B0BDE8F04F01F0BABE6E
S315080038002CB9284603B0BDE8F04F04F0D7BE04F043
S3150800381067FD35F8067C07344FEAC70B24F0070422
S31508003820A3458046A5F1080180F0968035F8023C4C
S31508003830002B6FD0DA1B012A6CD101EBC30911F8F2
S315080038403330D80766D4B9F80220ABEB040313EB80
S31508003850C2035FD41F2B3BDD2F19C4F3CF0425F811
S31508003860064C0134384625F8024C009301F0D1FE87
S3150800387035F8022C009BBA80B9F80620DB087B8055
S3150800388022B3B9F80210511A11FA83F39BB209EB65
S31508003890C202FB8093804A4600233946304601F02F
S315080038A006FF484601F0B5FE002235F8063CB16829
S315080038B0CBEBC3030B44F168CAF800508B42B360E4
S315080038C048D8002A41D0083BB3603EE0FA80E2E7D8
S315080038D033690137013B3361B9F80630174425F8D7
S315080038E0067CA3B1B9F802209A1A12FA87F7BFB272
S315080038F009EBC30325F8027C9F804A46012330461C
S3150800390001F0D5FE484601F084FE0122CDE725F8F0
S31508003910023CF2E7214653460022304601F02AFED1
S31508003920044630B1404604F0D6FC204603B0BDE854
S31508003930F08F5A462946DAF8000001F096FF284625
S3150800394004F03CFE04460028ECD1404604F0C3FCD3
S315080039500024EAE7F360B4E776D935F8022CABEB36
S315080039600409531EDB1B002A3CD001EBC20711F8E1
S315080039703220D20737D4002B35D1C4F3CF03291907
S3150800398025F8063C0133084625F8023C009101F06B
S3150800399040FE009935F8022C7B888A80FA8803EB6A
S315080039A0D9034B80DAB17888101A10FA83F39BB2E0
S315080039B007EBC202CB80938000233A46304601F0DB
S315080039C076FE384601F025FE0023B268A4EB0B0408
S315080039D0CAF800501444002B39D1B460B5E7002367
S315080039E0CB80E9E71746B9F1270F2DD9C4F3CF02E3
S315080039F0291925F8062C0132084625F8022C0091CB
S31508003A00019309F1FF3901F004FE009935F8022CFB
S31508003A104FEAD909A1F802908A809FB1019B013328
S31508003A2013FA89F91FFA89F9A1F80690A7F80490FC
S31508003A30336930460133336100231A4601F037FEF5
S31508003A400123C2E7CF80F3E7CAF800507DE7F368A1
S31508003A5008349C42B46088BFF46076E7222464E7A1
S31508003A60212462E72696000813460A4601460148BD
S31508003A70FFF7A2BED8100020024AD2E90021C0E909
S31508003A8000217047001100200349044B044A5B1AC1
S31508003A9011605360704700BF101500200000042015
S31508003AA00011002038B503690D461446DBB13AB952
S31508003AB081B9046824B940F23B110C4801F019FC9D
S31508003AC020460378DB070FD535B9C3885BB100EB11
S31508003AD0C300F6E78469EDE7012D04D1838813B1A5
S31508003AE0A0EBC300EDE7002038BD00BFD196000863
S31508003AF0F8B50D4617461C46064618B111B1082AF0
S31508003B0000D823B94FF4C6710F4801F0F2FB002321
S31508003B103046C4E90065C4E9023323616362C4E937
S31508003B200566277701F075FD2369013DED08013328
S31508003B3075802361A368E268083393424FF000005A
S31508003B40A36088BFE360F8BDD196000808B501F008
S31508003B5066FE034B1868BDE8084004F010BA00BFBB
S31508003B600811002000B58BB02022002102A801F020
S31508003B7062FE0B4B4FF48052019337230021CDE9A7
S31508003B800623084801AA04F0AFF9074B186018B9CC
S31508003B905221064801F0ADFB0BB05DF804FB00BFEF
S31508003BA0139D00084D3B0008081100208497000863
S31508003BB070B504F095FB144E05463478FCB9134BE2
S31508003BC01C60134B1C60134B1C6000F02BF8012083
S31508003BD004F00CFD04F008F90F4B0246186020B9F2
S31508003BE0284604F078FB232070BD234640F2E731CF
S31508003BF00A4800F083FE0A4B1860012333702846F2
S31508003C0004F069FB0020EFE78B1400201411002054
S31508003C10101100201C1100201811002018FCFFFFAD
S31508003C200C11002010B5002486B01422214601A8E4
S31508003C308DF8004001F0FFFD012313488DF804308C
S31508003C4004F08FFBBFF34F8F6846FFF7F3F8204663
S31508003C5001A98DF80440FFF7FFF820460F2103F06D
S31508003C60A1FE0F21204603F0ABFEFFF7C9F803F0CB
S31508003C706FFE064B43209C61FFF700FC4320FFF7CD
S31508003C80CBFB06B010BD00BF6C9F000800800A5031
S31508003C9010B5044603F07AFC4FF47A729042B0FBF2
S31508003CA0F2F105D23921BDE810400C4801F021BBDC
S31508003CB00B4BB3FBF1F30B49884201D93F21F2E7DD
S31508003CC002FB04F0B0FBF3F0022806D9BDE8104069
S31508003CD00323B0FBF3F0FCF74BBA10BDC8980008F5
S31508003CE040420F00E7CD9A3B10B598B000F030F887
S31508003CF000F0A2F900220421082002F001FB044684
S31508003D0018B92121104801F0F4FA00F0FFF820460E
S31508003D1000F08CFD204600F0EBFB00F0EFFB00F016
S31508003D200DFC00F0D3F900F0BDFD00F02FF90523D6
S31508003D306021064A684601F037F8684601F03DFDFD
S31508003D4000F0E6F918B010BD63990008C499000898
S31508003D5008B5104804F005FB0F4801F021FD0F488F
S31508003D6001F01EFD0E4801F01BFD0E4801F018FD7E
S31508003D700D4801F015FD0D4801F012FD0C4801F043
S31508003D800FFD0C4801F00CFDBDE808400A4801F09B
S31508003D9007BD00BF7C9F0008F49F0008F29F00083B
S31508003DA0F09F0008EE9F0008EC9F0008EA9F0008B5
S31508003DB0E89F0008E69F0008E49F0008014801F014
S31508003DC0F3BC00BFF49F0008014801F0EDBC00BF3A
S31508003DD0F29F000810B10348FCF768BF0148FCF7DA
S31508003DE089BF00BFF09F000810B10348FCF75EBF0B
S31508003DF00148FCF77FBF00BFEE9F000810B10348DB
S31508003E00FCF754BF0148FCF775BF00BFEC9F0008DC
S31508003E10014801F0C9BC00BFEA9F0008014801F04B
S31508003E20C3BC00BFE89F000810B10348FCF73EBFBB
S31508003E300148FCF75FBF00BFE69F0008014801F094
S31508003E40B3BC00BFE49F000813B5002420460194C4
S31508003E50FFF7EAFFFFF7F2FF094B1C70094B1868DA
S31508003E6058B1214601AA02F07FFD019B2BB14FF004
S31508003E70E0234FF08052C3F8042D02B010BD00BFF6
S31508003E808C1400203811002000B51A4EADB01A4B1C
S31508003E904FF0FF32186803A902F03EF801280446DD
S31508003EA0F5D1BDF80C30013B9BB29F2BEFD8134DD3
S31508003EB0A22203A90F4801F0D8FC20462C70002442
S31508003EC0FFF7B2FFCDE9004433880D4A0D490E4885
S31508003ED001F057FA18B12046FFF7A6FF2C702B7889
S31508003EE0002BD4D04FF0FF320121002002F020FF32
S31508003EF0F5E700BFB41200203C1100208C14002006
S31508003F003CC00550B61200202011002007B500223B
S31508003F10A221182002F0F4F9154B186018B981216E
S31508003F20144801F0E6F900201349FFF7C7F918B15C
S31508003F308421104801F0DDF900210F4A00910F4B4A
S31508003F4012780F48FCF7C0FD18B18721094801F01F
S31508003F50D0F90C490A48FCF76DFD18B18A210548C5
S31508003F6001F0C7F90022084B1A7003B05DF804FB8C
S31508003F703C110020199A00088D140020493E0008BB
S31508003F8020110020D09F00088C14002007B50B4B89
S31508003F904FF48072019303230949009309480023CB
S31508003FA004F04FF9012806D09721074803B05DF8B9
S31508003FB004EB01F09EB903B05DF804FB381100204C
S31508003FC0799A0008893E0008199A000800B50A4639
S31508003FD0ABB00146A8B1531E9F2B12D80DF10600AF
S31508003FE0ADF8042001F041FC07480023322200689E
S31508003FF001A901F001FF431E584258412BB05DF854
S3150800400004FB0020FAE700BF3C110020012300B59D
S31508004010ABB08DF8060007480A46ADF8043001A98A
S315080040200023006802F00CF8431E584258412BB092
S315080040305DF804FB3C1100204FF4006330B58BB0EB
S31508004040ADF804304FF410631B4D03ACADF80830DF
S315080040500FCD0FC495E8070084E80700174804F059
S3150800406080F9174804F07DF901F01AF904210122B4
S315080040700DEB0100FCF7E6FD0122022102A8FCF780
S31508004080E1FD00220F4B1048C3F820274FF4002209
S31508004090C3F838274FF41022C3F830271422C3F880
S315080040A0202705238DF80C304FF4E13303A9059337
S315080040B0FEF758FA0BB030BDF89F00087C9F000841
S315080040C0689F000800C0035000C005500A4B0B4A01
S315080040D01860002313700A4A13700A4A13700A4AB2
S315080040E013700A4A82F84230A2F84030A2F88430A7
S315080040F082F88630704700BF4011002091140020D6
S31508004100901400208F1400208E14002056130020CF
S31508004110042208B5074B092003F5005103F580531F
S315080041208A64DA64FFF7AAF9BDE808400920FFF7B0
S3150800413073B900BF00C00550F8B506460D461446CB
S315080041400AB10023137004F0CBF8204B1A7822B179
S315080041500CB10122227000221A7044211C4B1D4A00
S315080041601C78E3B201FB042494F842407CB91A4B4C
S315080041701B78C3F10103DBB201FB032191F842105E
S3150800418001F0FF0419B904F0A6F82046F8BD442149
S3150800419001FB0324B4F8404001FB0321AC4224BFD1
S315080041A005F1FF35ACB235463719BD4209D144256C
S315080041B0002105FB03223155A2F8401082F842106F
S315080041C0E1E711F801CB05F801CBEEE78F140020E3
S315080041D090140020561300209114002073B5002473
S315080041E00194FFF7EBFD3A4B9A6C52070BD5042264
S315080041F05D6A03F50053EDB20A2D9A64354B04D176
S315080042001A7812B11C7002B070BD0D2D0CBF0122B8
S315080042100022314E314C1A7001D00A2D3AD1357828
S3150800422004F05EF844220123EDB202FB054585F849
S315080042304230002533782A49DBB20B703378C3F154
S315080042400103DBB23370337802FB0343A3F8405013
S31508004250337802FB034383F8425004F03CF8FFF737
S31508004260B3FD01A90D20FFF7D1FE0A2001A9FFF72A
S31508004270CDFE1C4B186818B1294601AA02F074FB3A
S31508004280019B002BBFD04FF0E0234FF08052C3F8BC
S31508004290042DB8E7A5F120035E2B03D8284601A90B
S315080042A0FFF7B4FE4422337802FB034494F8422015
S315080042B0019B1AB101210C4A1170E2E7B4F84020BB
S315080042C03E2AF7D8511CA4F84010A554D9E700BFD8
S315080042D000C005508E1400209114002056130020AB
S315080042E090140020401100208F140020054903680F
S315080042F01A7812B18A5C120700D47047013303603A
S31508004300F5E700BF2DA00008002373B50446019306
S315080043100E46FFF7EBFF0068037813B9002002B0DA
S3150800432070BD2D2BFAD02B2B04BF013020600378EB
S315080043300E4AD35C5B07F1D50A2201A900F02AFDD3
S31508004340019B226805469A42E8D04FF6FE72411E46
S315080043509142E3D823602046FFF7C8FF23681B78FD
S31508004360002BDBD101203580D9E700BF2DA000083E
S31508004370F0B5012595B000244FF0FF320121204603
S315080043808DF8074004AF02F0D3FC0120FFF722FDA9
S31508004390402138460DF10702FFF7CEFE9DF807606B
S315080043A01EB1474801F009FA00E018B90020FFF7E6
S315080043B011FDE0E702A80297FFF798FF029C237811
S315080043C0002BF3D0052220463E49039601F03BFA1E
S315080043D018BB63791BB13C4AD35C18071DD5053455
S315080043E002A80294FFF782FF029B1B780BB9374895
S315080043F0D8E70DF10E01FFF787FF08B93448D1E772
S3150800440000238DF80C3033483222006803A901F0E6
S31508004410F3FC0128CAD03048C4E7042220462F49B5
S3150800442001F011FAC8B923791BB1274AD35C1907D9
S3150800443013D5043402A80294FFF758FF029B1B7891
S315080044400BB92748AEE70DF10E01FFF75DFF00280F
S31508004450D4D000238DF80C50D5E7062220462149F2
S3150800446001F0F1F998B9A3791BB1174AD35C1A0779
S315080044700DD5063402A80294FFF738FF029B1B7875
S315080044800BB119488EE702228DF80C20BBE70422EF
S315080044902046164901F0D7F90028F2D123791BB135
S315080044A0094AD35C1B07ECD5043402A80294FFF72B
S315080044B01DFF029B1B78002BE3D10322E4E700BF14
S315080044C0819A00089C9A00082DA00008A29A000864
S315080044D0D29A000848110020069B0008239B000872
S315080044E0289B0008579B00085E9B00089C9B0008B9
S315080044F0014B1860704700BF4811002007B50B4BE9
S315080045004FF4807201930223094900930948002356
S3150800451003F097FE012806D0C821074803B05DF8C6
S3150800452004EB00F0E6BE03B05DF804FB441100207E
S31508004530A19B000871430008AD9B0008014B186851
S31508004540704700BF4411002008B5034B186801F0F6
S3150800455065FD80B208BD00BF5011002070B5054644
S315080045600024114E0021306801F0C6FD012803D051
S3150800457046210E4800F0BDFE0134FFF74FFCAC4261
S31508004580F0D10B4D4FF0FF31286801F0B5FD094B0E
S3150800459028681A8814441C800023BDE870401A460F
S315080045A0194601F029BC00BF50110020119C0008D3
S315080045B04C110020E013002080B58E4E8E4DD6B0EB
S315080045C005AC4FF0FF322146306801F0A5FC012802
S315080045D0F7D1FFF709FC2378032B00F2E480DFE824
S315080045E013F004004600EA000601B4F80280FFF75B
S315080045F0ABFF404528BF404684B206AFA8EB040887
S31508004600A7F800807CB12046FFF7A8FF0523019391
S315080046102B88A0210093794A23462EA800F0C4FBD4
S315080046202EA801F0CAF83B88002B00F0BC800023B6
S3150800463073481A463946006801F0DEFB012803D0A4
S31508004640704801F0BAF8AEE06F4B3A881888104403
S3150800465080B21880003818BF0120FFF7CFFBA021D1
S315080046603B886A4A2EA800F09FFB2EA8E9E7DFF8E8
S31508004670AC814FF0FF31D8F80000678801F03CFDA7
S3150800468000232C881A461946D8F8000001F0B4FB16
S31508004690A74240F28C803B46A0215D4A009406A8BA
S315080046A000F082FB06A8CCE70023D9F800001A46DA
S315080046B0194601F0A1FBFFF7ABFB0134A3B29F42F9
S315080046C0F2D84FF0FF31D8F8000001F015FD0023AD
S315080046D02C881A46E41B1946A4B2D8F800002C8088
S315080046E001F08AFB0523A021CDE90043494A3B4650
S315080046F006A800F059FB06A801F05FF8424FDFF85C
S3150800470000913B88002B48D0FFF71EFF002844D0B5
S31508004710002204AC2146D9F80000ADF8102001F0BB
S31508004720FBFB012839D1BDF81030002BE9D0FFF783
S315080047300BFFBDF810300DF11208984228BF184635
S3150800474084B21B1BA8F8003094B12046FFF706FF79
S315080047503B88A0211B1B3B80052301932B882E4AEF
S3150800476000932EA8234600F01FFB2EA801F025F87B
S31508004770B8F80030002BC4D0012300224146D9F8EE
S31508004780000001F039FB0128BBD03B88B8F80020AF
S315080047901C4813443B8001F010F83888003818BFCD
S315080047A00120FFF72BFB0020FFF71EFB08E700247C
S315080047B0DFF8749082E7194C4FF0FF31206801F05A
S315080047C09BFC002320681A4619462F8801F014FB23
S315080047D0FFF7BAFE0C4BA0211B88114ACDE901034D
S315080047E005232EA800933B4600F0DEFA3DE70D4868
S315080047F027E700BF58110020E0130020739C00082B
S3150800480054110020B79C0008DE130020D19C000834
S31508004810149D0008539D0008979D00084C11002020
S31508004820E59D0008259E000850110020002208B5C5
S31508004830154B02211860154B08201A80144B1A8054
S3150800484001F05EFD134B186020B940F205111248BD
S3150800485000F04FFD0521084601F082FD0F4B186058
S3150800486020B94FF484710C4800F043FD012003F091
S31508004870DDFC0B4B186030B9BDE8084040F20B115F
S31508004880054800F036BD08BD58110020E013002089
S31508004890DE13002054110020119C0008501100203E
S315080048A04C11002007B5002302220A49CDE900234E
S315080048B009484FF4A07203F0C4FC012807D04FF44E
S315080048C08B71064803B05DF804EB00F012BD03B027
S315080048D05DF804FBE29E0008B9450008119C000833
S315080048E001490248FEF768BC849F00085C11002055
S315080048F0014800F065BD00BF14A0000853B94AB9C5
S31508004900002908BF00281CBF4FF0FF314FF0FF30C9
S3150800491000F0B2B9ADF1080C6DE904CE00F006F866
S31508004920DDF804E0DDE9022304B070472DE9F04F15
S315080049308C46099E04460F46002B48D18A421546E6
S315080049405ED9B2FA82F33BB1C3F120029F409D4083
S315080049509C4020FA02F217434FEA154E1FFA85FCCF
S31508004960220CB7FBFEF10EFB117701FB0CF042EAB5
S315080049700742904207D9AA1801F1FF3702D290429E
S3150800498000F258813946121AA4B2B2FBFEF00EFBA9
S31508004990102200FB0CFC44EA0244A4450BD92C194E
S315080049A000F1FF322CBF01270027A44502D9002FAA
S315080049B000F04381104640EA0140A4EB0C040021B4
S315080049C01EB1DC400023C6E90043BDE8F08F8B42E8
S315080049D006D90EB1C6E9000100210846BDE8F08FE8
S315080049E0B3FA83F1002951D16345C0F0168182429A
S315080049F040F213810846002EE7D0C6E90047E4E7EF
S31508004A00002A00F0AF80B2FA82F3002B40F0C28091
S31508004A108A1A4FEA154EAFB20121200CB2FBFEFCF2
S31508004A200EFB1C2240EA024207FB0CF090420ED90C
S31508004A30AA180CF1FF382CBF4FF001094FF00009F6
S31508004A40904203D9B9F1000F00F0F080C446121A5B
S31508004A50A4B2B2FBFEF00EFB102200FB07F744EAF5
S31508004A600244A7420ED92C1900F1FF322CBF4FF091
S31508004A70010E4FF0000EA74203D9BEF1000F00F059
S31508004A80D2801046E41B40EA0C4099E7C1F12005A4
S31508004A908B400CFA01F400FA01F922FA05F72CFA10
S31508004AA005FC8A401F4320FA05F3380C23431FFAF6
S31508004AB087FE1C0CBCFBF0F800FB18CC44EA0C443F
S31508004AC008FB0EFCA4450ED93C1908F1FF3A2CBF89
S31508004AD04FF0010B4FF0000BA44503D9BBF1000FB3
S31508004AE000F0B880D046A4EB0C041FFA83FCB4FB94
S31508004AF0F0F300FB134403FB0EFE4CEA0444A64500
S31508004B000ED93C1903F1FF302CBF4FF0010C4FF0C2
S31508004B10000CA64503D9BCF1000F00F09F800346A0
S31508004B2043EA0840A4EB0E04A0FB02EC6445734676
S31508004B30E04602D307D1F14505D2BEEB02036CEB82
S31508004B40070C0138E0465EB1B9EB030264EB0804D2
S31508004B5004FA05F522FA01F3CC401D43C6E90054D0
S31508004B60002132E742082F464B08AC4642EAC1729A
S31508004B70AE46C407110C92B241EA034142EA014229
S31508004B80B1FBF5F1B3FBF5F01F23A2EB0C0241EAEA
S31508004B90004142E79D40C3F1200299409C402CFA0F
S31508004BA002FC4FEA154E20FA02F2AFB2BCFBFEF841
S31508004BB00A430EFB18CC110C41EA0C4108FB07FC12
S31508004BC08C4550D9691808F1FF302CBF4FF0010900
S31508004BD04FF000098C4502D9B9F1000F30D0A1EB8E
S31508004BE00C01B1FBFEF808FB07FC0EFB181192B28C
S31508004BF042EA0142624534D2AA1808F1FF312CBFB5
S31508004C004FF001094FF000096245BED2B9F1000F15
S31508004C10BBD1A8F102012A44B7E7841A6CEB030258
S31508004C2001201746E7E62C4402382BE7ACF1020CC4
S31508004C302A440CE702392A44A5E62C440238BAE687
S31508004C40A5EB0C0CA8F102006144B1FBFEF808FBC9
S31508004C5007FCCAE7A8F102083C4444E7023B3C4487
S31508004C605EE7414691E7A1EB0C014046B1FBFEF831
S31508004C7008FB07FCB9E700BF704700BF08B5064B3D
S31508004C80044613B10021AFF30080044B1B6803B13F
S31508004C909847204600F02EFB00000000B0120020C6
S31508004CA0242B2DE9F0478646904601D8012B06D1DC
S31508004CB000F0B0F8162303600020BDE8F0870D4623
S31508004CC033482A4615F8014B065D16F00806F8D152
S31508004CD02D2C10D12C780126951C33F0100215D1F5
S31508004CE0302C0DD12A7802F0DF02582A08D16C78C8
S31508004CF0023510230AE02B2C04BF2C78951CECE710
S31508004D00002BF6D1302C14BF0A23082306F1004CD9
S31508004D1000220CF1FF3C1046BCFBF3F903FB19CA51
S31508004D20A4F13007092F0FD83C46A3421BDD571CB8
S31508004D3007D0814514D301D1A24511DB00FB0340FE
S31508004D40012215F8014BEBE7A4F14107192F01D809
S31508004D50373CEAE7A4F16107192F04D8573CE4E782
S31508004D604FF0FF32EDE7531C08D122236046CEF8F8
S31508004D700030B8F1000FA0D0691E06E006B1404227
S31508004D80B8F1000F99D0002AF6D1C8F8001094E7B8
S31508004D902DA0000813460A46014602480068FFF798
S31508004DA07FBF00BFA81400200CB4194B30B50C1EE9
S31508004DB09DB01D6808DA8B234FF0FF302B601DB0BD
S31508004DC0BDE8304002B070474FF402730290069077
S31508004DD002A9ADF814304FF00003209A28461B9319
S31508004DE014BF04F1FF332346049307934FF6FF736A
S31508004DF0ADF8163021AB019300F036F8431CBCBF62
S31508004E008B232B60002CDAD0029B00221A70D6E77F
S31508004E10A8140020014B1868704700BFA81400208A
S31508004E2070B50D4B00260D4D5B1B9C10A64209D193
S31508004E300B4D03F005FC0B4B00265B1B9C10A64292
S31508004E4005D170BD55F8043B01369847EEE755F88D
S31508004E50043B01369847F2E70415002004150020A4
S31508004E6004150020081500202DE9F04F98468B8977
S31508004E709DB007461B060D46144610D50B6973B937
S31508004E80402100F0BCFB2860286130B90C233B6048
S31508004E904FF0FF301DB0BDE8F08F40236B61002353
S31508004EA0CDF80C804FF00109DFF8A0810993202383
S31508004EB08DF8293030238DF82A3023469A4613F880
S31508004EC0012B0AB1252AF9D1BAEB040B0BD05B46A4
S31508004ED022462946384600F0DDFC013000F0A7805E
S31508004EE0099A5A4409929AF80030002B00F09F80DC
S31508004EF000234FF0FF320AF1010A049307938DF855
S31508004F0053301A93CDE90523544605224F4814F821
S31508004F10011B00F0AAFD049AD8B9D00644BF202385
S31508004F208DF85330110744BF2B238DF853309AF868
S31508004F3000302A2B15D0079A544600204FF00A0C49
S31508004F40214611F8013B303B092B4BD9B0B10792EA
S31508004F5014E0A0EB0803A24609FA03F313430493EB
S31508004F60D2E7039B191D1B68002B0391BBBF5B424D
S31508004F7042F0020207930793B8BF049223782E2BB8
S31508004F800AD163782A2B32D1039B02341A1D1B6877
S31508004F9043EAE37303920593DFF8C0A0032221785E
S31508004FA0504600F062FD38B1A0EB0A004022049B8F
S31508004FB0013482401343049314F8011B0622244843
S31508004FC08DF8281000F051FD002836D0214B1BBB68
S31508004FD0039B073323F0070308330393099B3344E2
S31508004FE009936AE70CFB02320C460120A8E7002366
S31508004FF001344FF00A0C19460593204610F8012B88
S31508005000303A092A03D9002BC6D00591C4E70CFB10
S31508005010012104460123F0E703AB2A4604A93846D2
S3150800502000930D4BAFF30080421C0646D6D1AB89E0
S315080050305B063FF52DAF09982CE703AB2A4604A972
S3150800504038460093044B00F00BF8EDE7EC9E000899
S31508005050F69E00080000000095580008F29E000819
S315080050602DE9FF470F7E914680460C46782F9A46D3
S315080050700C9E01F1430207D8622F0AD8002F00F0D0
S31508005080D280582F00F0B78004F1420684F84270A7
S315080050903AE0A7F16303152BF6D801A151F823F0DE
S315080050A0F95000080D510008895000088950000879
S315080050B089500008895000080D51000889500008D9
S315080050C08950000889500008895000080D520008C8
S315080050D037510008C3510008895000088950000854
S315080050E02F520008895000083751000889500008D7
S315080050F089500008CB51000833681A1D1B683260B6
S3150800510004F1420684F8423001239DE033682068A2
S31508005110191D3160060601D51D6803E04506FBD555
S31508005120B3F90050002D03DA2D236D4284F843307D
S3150800513059480A2310E021683368080653F8045BC7
S3150800514002D4490648BFADB26F2F5348336059D1D0
S315080051500823002184F843106668002EA66005DB44
S3150800516021682E4321F0040121604DD01646B5FB77
S31508005170F3F103FB1157C75D06F8017D2F460D466F
S31508005180BB42F4D9082B0BD12368DF0708D523695E
S3150800519061689942DEBF302306F8013C06F1FF3606
S315080051A0921B22614B4603AA21464046CDF800A031
S315080051B000F0D0FB01304CD14FF0FF3004B0BDE811
S315080051C0F087236843F02003236078273348236851
S315080051D084F845701F06316851F8045B02D45F06EF
S315080051E048BFADB23160D90744BF43F020032360FE
S315080051F01DB11023ADE72848E9E7236823F020030B
S315080052002360F6E70A23A4E71646BBE73368256852
S31508005210181D616930602E061B6801D5196002E009
S315080052206806FBD51980002316462361BAE733685A
S3150800523000211A1D32601E686268304600F015FCAF
S3150800524008B1801B606063682361002384F84330DB
S31508005250A8E72369324649464046D0470130ABD0D5
S3150800526023689B0713D4E068039B9842B8BF184687
S31508005270A4E70123324649464046D04701309BD031
S315080052800135E36803995B1AAB42F2DCEBE70025CC
S3150800529004F11906F5E700BFFD9E00080E9F0008F9
S315080052A007B5042101220DEB0100ADF80420FBF738
S315080052B0C9FC002003B05DF804FB08B5FFF7F0FF52
S315080052C0002008BD07B50421012300220DEB0100CB
S315080052D0ADF80430FBF7B6FC002003B05DF804FB1C
S315080052E008B5082000F017F8BDE80840082000F0C7
S315080052F01DB8FEE7FEE7FBF70DB9FEE700239A4265
S3150800530000D1704710B550F8234041F823400133C7
S315080053109A42F8D110BD4FF060420123D2F8001E20
S3150800532083400B430020C2F8003E70474FF06041AF
S315080053300122D1F8003E824023EA02030020C1F888
S31508005340003E704721F00303003918BF012143EAE4
S315080053504103C360704738B5054601B938BD0C7BB3
S315080053600B7C14F002041CBFCC6824F00304DB0792
S3150800537002D5284602F088F92146EEE70022FBF717
S31508005380EBB900B589B0CDE9011201220393ADF856
S3150800539012209DF8283040F201128DF810300023B3
S315080053A0ADF814200B9A01A9CDE906238DF8113022
S315080053B08DF81630FFF7E2FF09B05DF804FB704779
S315080053C0D0E90003184707B503788DF80430437809
S315080053D08DF80530837801A823B9FBF78BFC03B059
S315080053E05DF804FBFBF762FCF9E707B503788DF86F
S315080053F0043043788DF80530837801A823B9FBF784
S3150800540055FC03B05DF804FBFBF774FCF9E707B538
S3150800541003788DF80430437801A88DF8053002F03A
S31508005420DFF903B05DF804FB13B5044603780DF104
S3150800543003018DF80430437801A88DF80530FBF791
S315080054407DFCA3789DF80300002B08BF80F00100BF
S3150800545002B010BD08B502F0ABF8BDE8084000215F
S31508005460FCF726B80029CCBF01210021FCF720B89B
S3150800547002214FF42070FCF79BBC7047704770B54B
S31508005480054614460E4602F022FF2B685C4034405F
S315080054905C402C60BDE8704002F014BF00F000B814
S315080054A000207047FDF734BDF8B50C468D18073552
S315080054B052421540A5F108070646384600F0A9F8F5
S315080054C0A0883B1B618800EBE30080B2A1EBE301F7
S315080054D025F8040C25F8061CA188DA10D1B1A4EB2E
S315080054E0C101B1F802C0C88002EB0C004880E1880F
