S02B0000433A2F55736572732F74617372697661732F53696D706C696369747953747564696F2F76365F776F8C
S31508000000000400202F5A0008335A0008335A000803
S31508000010335A0008335A0008335A0008335A00087E
S31508000020335A0008335A0008335A0008ED650008A9
S31508000030335A0008335A00089165000823880008D7
S31508000040335A0008335A0008335A0008335A00084E
S31508000050335A0008335A0008335A0008335A00083E
S31508000060335A00088D440008335A0008335A0008EA
S31508000070335A0008335A0008335A0008335A00081E
S31508000080335A0008335A0008335A0008335A00080E
S31508000090335A000875340008335A0008335A0008E2
S315080000A0335A00081D0E0008FD0D0008335A0008D3
S315080000B0335A0008335A0008335A0008335A0008DE
S315080000C0335A0008335A0008335A0008335A0008CE
S315080000D0335A0008335A0008335A0008335A0008BE
S315080000E0335A0008335A0008335A0008335A0008AE
S315080000F0335A0008335A0008335A0008335A00089E
S31508000100335A0008335A0008335A0008335A00088D
S31508000110335A0008335A0008335A0008335A00087D
S31508000120335A0008335A0008335A0008335A00086D
S31508000130335A0008335A0008335A0008335A00085D
S31508000140335A0008335A0008335A0008538F0008F8
S31508000150335A0008335A0008335A0008335A00083D
S31508000160335A0008335A0008335A0008335A00082D
S31508000170013800D0FCE770470348044B834202D09D
S31508000180034B03B118477047D0160020D01600203D
S3150800019000000000064B0749C91A891048BF0131FB
S315080001A0491003D0044B0BB101481847704700BFEC
S315080001B0D0160020D01600200000000010B5064C0E
S315080001C0237843B9FFF7D8FF044B13B10448AFF3BC
S315080001D000800123237010BD5C130020000000007E
S315080001E0F0AC000808B5054B1BB105490548AFF347
S315080001F00080BDE80840FFF7CDBF00BF0000000043
S3150800020000040020F0AC0008A3F5803A704700BF50
S31508000210174B002B08BF134B9D46FFF7F5FF002130
S315080002208B460F461348144A121A05F00BFF0E4B5D
S31508000230002B00D098470D4B002B00D09847002084
S31508000240002104000D000D48002802D00C48AFF329
S31508000250008005F081F92000290005F0FAFD05F077
S31508000260A9F800BF00000800000000000000000018
S31508000270000400200004002058160020000000009A
S315080002800000000008B5044808F015FD05F0ABFEAF
S31508000290BDE8084000F008B838AB0008014808F087
S315080002A00ABD00BF38AB00082DE9F0415D4C92B09D
S315080002B009AD94E80F0085E80F000DAA174604F16A
S315080002C0100304F1200C164618685968083303C64B
S315080002D063453246F7D11868534B08A93060187938
S315080002E008F0E4FC514808F0E6FC514808F0E3FC45
S315080002F04FF4807308984F49ADF83430814228BFCF
S3150800030001460C9702F01EFC29460A904A4802F05C
S315080003103BFB494802F0DAF9474802F063FA4648D7
S3150800032002F024FAB4F82480012204216846ADF8C4
S31508000330008000F087FCE78C0022012101A8ADF8B7
S31508000340047000F07FFC268D0122042102A8ADF876
S31508000350086000F077FC658D0122042103A8374C5C
S31508000360ADF80C5000F06EFC354B4FF44870C4F8ED
S31508000370C8344FF00213C4F8C434A3F58033C4F864
S31508000380CC341C23C4F8B43403F0DEFC07A8ADF85B
S315080003901C5000F0AFFC142003F0D6FC07A8ADF8FB
S315080003A01C5000F083FC232003F0CEFC07A8ADF810
S315080003B01C5000F09FFCB9211F4802F0A5FB07A8B6
S315080003C0ADF81C5000F072FC002204A81146ADF8E6
S315080003D0108000F037FC002205A81146ADF814700D
S315080003E000F030FC0122002106A8ADF8186000F0E4
S315080003F029FC0122002107A8ADF81C5000F022FCB8
S315080004000D4802F071FA00230948C4F8B434C4F858
S31508000410C834C4F8C434C4F8CC3408F04FFC12B05D
S31508000420BDE8F081B88F000878AB000838AB000843
S315080004303CAB0008E070720000000A5000C0035090
S315080004400200030040F6B131014805F0EEBA00BFDC
S31508000450E48F0008002307B50193084B1B68013396
S3150800046004D040F22131064805F0DFFA08F0A7FA71
S31508000470019B002BFCD003B05DF804FB5816002046
S315080004806B90000808B5EFF305830F2B0AD90E4ABF
S315080004909B5C0E4A12789A4204D940F2A1710C4824
S315080004A005F0C3FA4FF0E0230A4AD3F80C3D126868
S315080004B003F4E063934206D9BDE8084040F2B171FF
S315080004C0034805F0B2BA08BDF0E300E05D1300206A
S315080004D06B900008CC09002038B504460D4601B1DA
S315080004E018B93721034805F0A0FA23682B60256060
S315080004F038BD00BF969200080348044A0449121AF8
S31508000500921005F097BA00BF700100087001000844
S315080005105816002008B5154B83F30A8800F030F802
S31508000520FFF7EAFF124B13498B4212D30020124BF6
S3150800053012498B4218D3FFF76BFE186850F8224011
S31508000540586840F82240013298688242F5D30C3345
S31508000550EAE70022F8E71C6844F8220001325C68E2
S31508000560A242F8D30833E4E70022F8E700000020A7
S31508000570F8AC000804AD000804AD000804AD000896
S315080005804FF48041124B134A70B59A60D3F888200D
S31508000590114D42F47002C3F88820104A05F500543C
S315080005A091664FF0FF3222660D4A62660222C3F850
S315080005B0D020BFF34F8FBFF36F8F4FF44036002024
S315080005C002F0B8FF0020E66002F082FF2E6170BDDF
S315080005D000ED00E000000008008000440090005094
S315080005E0F7FF3700014B1860704700BF6016002000
S315080005F0054B1860054B1B6F03F00703032B01D14E
S3150800060007F06EBC704700BF6816002000800050D7
S31508000610002307B52948019308F04DFB4FF44073B2
S31508000620012204216846ADF8003000F00BFB0122D8
S31508000630234B0520C3F8442401A908F037FB0028FA
S3150800064039D1204BD3F8F02042F00102C3F8F0204C
S31508000650D3F8FC2042F08072C3F8FC201A4AA3F5AE
S315080006605D431A60019B194A03F5D52303F2FC433F
S31508000670B3FBF2F3164A013B13610223C2F8F030CA
S315080006804FF48073C2F804334FF06043114AC3F83D
S31508000690B02F114AC3F8802ED3F8002E42F4807288
S315080006A0C3F8002EFF2283F82020D3F8002E22F468
S315080006B08072C3F8002E03B05DF804FB38AB00085F
S315080006C000D0035000ED00E0FF030040F8590D008C
S315080006D0000004E055CEACC50900010038B50D464A
S315080006E0044620B94FF4AE61044805F09EF9204649
S315080006F0E46824F00304AC42F9D138BD2893000815
S3150800070070B50D46044620B94FF4B571104805F08A
S315080007108CF925B940F26B110D4805F086F9636826
S3150800072023B94FF4B6710A4805F07FF963681A6869
S31508000730084B9A4204D040F26D11054805F075F948
S315080007402B46217860680122BDE8704000F02CBA7B
S3150800075028930008000004502DE9F04F8DB00E468E
S315080007600546079220B94FF49E61AB4805F05DF93E
S3150800077026B940F2F141A84805F057F96B6823B944
S3150800078040F2F241A44805F050F96B681A68A34B89
S315080007909A4204D040F2F3419F4805F046F96B6847
S315080007A01F6827B940F2F6419B4805F03EF92B78B9
S315080007B0019308F03FFA2A7D0346012A07D108F07B
S315080007C034FA4FF0020948460DB0BDE8F08F079A93
S315080007D012B16A7D002AF2D1184608F026FA0023DB
S315080007E034460593002C38D108F024FA01990446BA
S315080007F0384607F031FD079B0BB101232B75286995
S31508000800002840F0028173692B61079B33B10021F0
S315080008102869FFF763FF716905F030F93023019AFB
S3150800082003FB02731A6F012A00F2FA8072693846CE
S3150800083042F0030201991A6707F0F4FC002800F059
S31508000840EF803846019902F0D9FA012320466B75E4
S3150800085008F0EBF94FF00009B5E7237B022B04D922
S3150800086040F212516C4805F0E0F8A36894F80C8041
S315080008707BB14FF0FF3202FA08F233EA020B08D1D5
S31508000880B8F1010F0CD0B8F1020F2BD0B8F1000F58
S315080008900DD02846716905F0FAF84FF0210992E75C
S315080008A02268D107F5D4626812F0010FF1D16269A6
S315080008B023FA08F3049212B1B3F5006FEDD8DA0AF9
S315080008C0C3F30A030292069313B113460133029344
S315080008D0049B0B9300230393029B9B4509D1059424
S315080008E0A4697FE722689207D3D1626812F0030FE2
S315080008F0DCE7049B002B75D128460BA9FFF700FF00
S315080009008146BBF1000F01D10B9B6361B9F1000F62
S3150800091040F08B800B9A137C43F001031374226812
S315080009200BFA08F302EBC3220992626802EBC32AA8
S31508000930029B581E83455BD1069B002B08BF4FF4CC
S315080009400063617C0B9A834514BF002101F0010105
S31508000950107C94F810C061F34100E17B10740331F8
S3150800096001F00301089109998CF0010C94F80D9097
S31508000970A07B94F80CE0013BC2E9011A4FEACC0AC5
S315080009809BB24AF4801A4AEA031A09F00F0903309F
S315080009904AEA094A00F003004AEA4C5A08994AEA20
S315080009A000630EF0030E43EA8E6343EA017311688F
S315080009B023F4400321F07F4121F47D1123F4004301
S315080009C021F47F5123F0040321F03B010B4313600C
S315080009D0039B83B11146184605F050F80BF1010B3D
S315080009E0039279E7142200210B9805F02BFB96E772
S315080009F04FF40063A5E7059B002BEFD003995869D0
S31508000A00FFF76CFE0B9A1146E6E70021FFF766FE34
S31508000A10716905F033F8F8E62893000800000450D9
S31508000A203846019902F0A2F90FE72846716905F0E0
S31508000A302EF8C8E6F8B50E46054620B94FF40971F2
S31508000A401E4804F0F2FF6B6823B940F225211B48C3
S31508000A5004F0EBFF6B681A68194B9A4204D040F20F
S31508000A602621164804F0E1FF2C78072C04D940F219
S31508000A702921124804F0D9FF08F0DCF86B7D0746F7
S31508000A801BB108F0D2F80420F8BD0E4DA40096B1AB
S31508000A90336823F47C1323F00F0323B140F23E217D
S31508000AA0064804F0C2FF33682C446360384608F0F1
S31508000AB0BCF80020E8E725446E60F7E728930008AD
S31508000AC00000045000400450072A2DE9F047044668
S31508000AD00E4615469A4604D940F29D112D4804F053
S31508000AE0A4FF24B94FF4CF712A4804F09EFF2A4B7D
S31508000AF0002E08BF1E46294B32689A4204D04FF48E
S31508000B00D471244804F091FFD6F8009008F092F8C2
S31508000B1029468046484607F0B1FB074628B14046B5
S31508000B2008F083F80420BDE8F087089B2946C4E945
S31508000B300330A082666030462570C4F808A004F029
S31508000B40DAFF6368986808F0B6F8154B986808F0F5
S31508000B50B2F839462046FFF76DFF072D15D822460D
S31508000B602946384602F04AFC29460E4A384602F01B
S31508000B702DFC012309F58052AB40536343F0004333
S31508000B8029464846536502F003F9404608F04DF8F1
S31508000B900020C8E72893000840AB0008000004506E
S31508000BA064AB0008D580000810B51C461BB9472160
S31508000BB0064804F03AFF012223461421104602F0A3
S31508000BC049FE10B100231920236010BDCC930008FC
S31508000BD070B5044601260C4D04B970BD94FAA4F00C
S31508000BE0B0FA80F006FA00F224EA0204C200AA5813
S31508000BF00F2805EBC001C8BF1038002AECD0496899
S31508000C00C0B29047E8E700BFAC0F002008B50C4813
S31508000C1008F051F8192002F075FC28B1192002F0E5
S31508000C2089FC192002F054FC1A2002F06BFC28B14A
S31508000C301A2002F07FFC1A2002F04AFC002008BDA8
S31508000C4038AB0008F8B50D461746044628B91648C5
S31508000C50892104F0EAFE2220F8BD0F2903D98C2148
S31508000C60114804F0E2FE2378DBB1012B03D0022BF6
S31508000C7017D0032B04D13F236278D340DB0703D474
S31508000C808D21094804F0D1FE07F0D4FF06463A46FE
S31508000C902946204601F0FEFF304607F0C6FF002031
S31508000CA0DAE740F2FF33E7E77D94000810B504461B
S31508000CB028B90F48CF2104F0B8FE222010BD0378CA
S31508000CC09BB1012B03D0022B0FD0032B04D13F235A
S31508000CD06278D340DB0703D4D221054804F0A5FE89
S31508000CE0204607F04BFA0020E8E740F2FF33EFE72B
S31508000CF07D94000810B5044628B90F48DF2104F092
S31508000D0094FE222010BD03789BB1012B03D0022B41
S31508000D100FD0032B04D13F236278D340DB0703D4DB
S31508000D20E221054804F081FE204601F027FF002055
S31508000D30E8E740F2FF33EFE77D94000870B50D460B
S31508000D40044600B131B914484FF4817104F06DFEC0
S31508000D50222070BD0378DBB1012B03D0022B17D0FC
S31508000D60032B04D13F236278D340DB0704D440F237
S31508000D700511094804F059FE07F05CFF06462046AF
S31508000D8001F052FF2870304607F04FFF0020E0E7D9
S31508000D9040F2FF33E7E700BF7D94000870B50D46C3
S31508000DA0044600B131B914484FF48C7104F03DFE85
S31508000DB0222070BD0378DBB1012B03D0022B17D09C
S31508000DC0032B04D13F236278D340DB0704D440F2D7
S31508000DD01B11094804F029FE07F02CFF0646204699
S31508000DE001F0F6FE2870304607F01FFF0020E0E706
S31508000DF040F2FF33E7E700BF7D94000808B501F02D
S31508000E003FFF054B00F0553020F05020C3F8200472
S31508000E10BDE80840FFF7DCBE00E0035008B501F066
S31508000E202FFF054B00F0AA3020F0A020C3F82004BD
S31508000E30BDE80840FFF7CCBE00E0035013B50446F2
S31508000E400A4807F038FFA2780421B2FA82F223781A
S31508000E5052098DF8043063780DEB01008DF80530E2
S31508000E60FFF7F0FE002002B010BD00BF38AB000847
S31508000E70044BD3F88420D206FBD4D3F88400C0F3FD
S31508000E80811070470040005038B5104B0546D3F81E
S31508000E9000310C4603F00303022B0BD0032B0DD0B5
S31508000EA0012B0FD107F036F8032305B1286004B1EA
S31508000EB0236038BD07F08CF80923F6E707F030F809
S31508000EC00823F2E701230020EFE700BF0080005067
S31508000ED038B5104B0546D3F840310C4603F00303EA
S31508000EE0022B0BD0032B0DD0012B0FD107F0A8FE38
S31508000EF00A2305B1286004B1236038BD07F068F8F5
S31508000F000923F6E707F09FFE0C23F2E701230020EA
S31508000F10EFE700BF0080005038B5104B0546D3F800
S31508000F2060310C4603F00303022B0BD0032B0DD0C4
S31508000F30012B0FD107F084FE0A2305B1286004B1FE
S31508000F40236038BD07F044F80923F6E707F07BFE6F
S31508000F500C23F2E701230020EFE700BF00800050D2
S31508000F6038B5104B0546D3F840320C4603F0030358
S31508000F70022B0BD0032B0DD0012B0FD107F060FEEF
S31508000F800A2305B1286004B1236038BD07F020F8AC
S31508000F900923F6E707F057FE0C23F2E701230020A2
S31508000FA0EFE700BF0080005038B5124B0546D3F86E
S31508000FB080300C4603F00303022B0BD0032B0DD015
S31508000FC0012B0FD106F06CFF0E2305B1286004B182
S31508000FD0236038BD06F0A8FF0723F6E706F05AFF98
S31508000FE00623F2E7044841F2013104F01EFD00230E
S31508000FF01846EAE7008000501395000838B51A4BE2
S315080010000546D3F820010C4600F00700062821D82B
S31508001010DFE800F028040C1410181C0006F03AFF4C
S31508001020052305B1286004B1236038BD06F072FFB8
S315080010300323F6E706F078FF0723F2E706F066FFD4
S315080010400223EEE706F026FF0623EAE706F062FF2C
S315080010500423E6E7054841F27E3104F0E6FC002366
S315080010601846DEE70123DCE70080005013950008E8
S3150800107038B5194B0546D3F828310C4603F0070353
S31508001080013B052B20D8DFE803F003131B0F0B17D2
S3150800109006F000FF052305B1286004B1236038BDBA
S315080010A006F0F8FE0623F6E706F03EFF0723F2E70A
S315080010B006F030FF0323EEE706F02CFF0423EAE7E9
S315080010C006F024FF0223E6E7044841F2781104F00B
S315080010D0ACFC00231846DEE7008000501395000894
S315080010E0002337B50193194B0546D3F820320C4631
S315080010F003F00703042B1FD8DFE803F025030F14BA
S315080011001900002101A8FFF7B3FF12230DB1019AB8
S315080011102A6004B1236003B030BD06F005FF07233B
S315080011200190F3E707F08CFD0A230190EEE706F03D
S315080011304FFF09230190E9E741F23511044804F00D
S3150800114074FC0023E2E70123E0E700BF00800050BB
S3150800115013950008F7B50027144B0197D3F880417B
S31508001160064604F00304022C0D4614D0032C0DD0B9
S31508001170012C14D1394601A8FFF740FF10240EB1FF
S31508001180019B336005B12C6003B0F0BD06F0CCFEC0
S3150800119007240190F3E706F0B9FE0190EFE741F264
S315080011A0E341034804F041FC3C46E8E70080005070
S315080011B01395000838B5164B0546D3F800020C46B9
S315080011C000F00700042819D8DFE800F020030B0F09
S315080011D0130007F035FD0A2305B1286004B1236022
S315080011E038BD06F0F5FE0923F6E707F02CFD0C23BB
S315080011F0F2E706F075FE0F23800AEDE7054841F28F
S31508001200A15104F012FC00231846E5E70123E3E7A1
S31508001210008000501395000838B5164B0546D3F8DC
S3150800122008020C4600F00700042819D8DFE800F089
S3150800123020030B0F130007F003FD0A2305B12860EE
S3150800124004B1236038BD06F0C3FE0923F6E707F0AC
S31508001250FAFC0C23F2E706F043FE0F23800AEDE7BB
S31508001260054841F2D95104F0E0FB00231846E5E7AA
S315080012700123E3E70080005013950008002337B5E3
S315080012800193184B0546D3F860320C4603F0070362
S31508001290013B032B1FD8DFE803F0020E19140021C7
S315080012A001A8FFF7ABFE10230DB1019A2A6004B11D
S315080012B0236003B030BD002101A8FFF709FE112302
S315080012C0F2E706F031FE07230190EDE706F01EFE71
S315080012D002230190E8E741F2DC11034804F0A5FB7C
S315080012E00023E1E70080005013950008002337B576
S315080012F00193184B0546D3F894320C4603F00703BE
S31508001300013B032B1FD8DFE803F0020E1914002156
S3150800131001A8FFF773FE10230DB1019A2A6004B1E4
S31508001320236003B030BD002101A8FFF7D1FD1123CA
S31508001330F2E706F0F9FD07230190EDE706F0E6FD72
S3150800134002230190E8E741F20F21034804F06DFB00
S315080013500023E1E7008000501395000808B5334BD9
S3150800136098424FD027D8324B984245D017D8314BA0
S3150800137098423ED00AD838B12F4B984239D041F21C
S31508001380B8412E4804F051FB002034E02C4B98421B
S315080013902FD02C4B9842F2D12B4B586E2BE02B4B6F
S315080013A098422CD003F5371303F5D8639842E6D153
S315080013B0254B986F1FE0264B98422FD00CD8254B0B
S315080013C0984223D0244B984224D0244B9842D6D115
S315080013D01D4BD3F884000EE0214B984222D003F52A
S315080013E0740303F510539842C9D1174BD3F89800E4
S315080013F001E0154B986D08BD134B186FFBE7124BB0
S31508001400586FF8E7104BD3F88000F4E70E4BD3F883
S315080014108800F0E70C4BD3F88C00ECE70A4BD3F8BE
S315080014209000E8E7084BD3F89400E4E780BA8C010B
S31508001430405DC60080841E0040420F0013950008D8
S3150800144000093D00C0CF6A000080E00F0024F400C8
S31508001450007E560380D54302006CDC020048E80192
S315080014600090D003F8B505460F46144607F0D9FB99
S31508001470064625B94FF49C71064804F0D6FA2B683F
S3150800148030465C403C405C402C60BDE8F84007F0C4
S31508001490C3BB00BFA2950008B0F5207F10B52DD0BC
S315080014A009D8B0F5007F23D003D868B1B0F5C07F5E
S315080014B00AD000241AE0B0F5607FFAD1124BD3F8AF
S315080014C08040C4F3011411E00F4B1B6F13F4604FF7
S315080014D0C3F303340AD0072C08D00F2C06D0032CEC
S315080014E004D04FF42771094804F09FFA601C10BD18
S315080014F0054BD3F89040C4F30464F7E7024B1C6F1E
S31508001500C4F38024F2E700BF00800050139500085A
S315080015104FF4803238B5104B04469A6600200D46C3
S31508001520FFF7BAFF41F671320C4B6043DC69DA63A8
S315080015305A6804F4803422F440125DB90849884296
S3150800154094BF00200120000502435A600CB1002216
S31508001550DA6338BD0349F2E70090005000000350F3
S31508001560005A6202002D3101002130B5B0F5807FA6
S3150800157085B00446CDE9001100F010816CD85E28CC
S3150800158062D85E2862D8DFE810F078006100610052
S315080015906100610061006100610061006100610035
S315080015A06100610061006100610061006100610025
S315080015B06100610061006100610061006100610015
S315080015C0610061006100610061007800EA0078004E
S315080015D0EA00FA00FA00FA00FA00FA00EA00040142
S315080015E081009E001A018100EA00EA00EA00610013
S315080015F06100610061006100610061006100EA004C
S31508001600EA00EA00B2002401EA0061006100610014
S3150800161061006100610061006100610061006100B4
S3150800162061006100FA007800780078001F018100E7
S3150800163081002901C1009600FF0061006100610078
S3150800164061006100D5007800802878D040F2F74123
S31508001650694804F0EAF975E0B0F5D06F00F0AF809C
S3150800166036D8B0F5607F00F085801AD8B0F5007FCF
S315080016706BD005D8B0F5C07FE8D106F031FC60E044
S31508001680B0F5207F6BD0B0F5407FDFD106F028FC9F
S3150800169004464FF42070FFF7FFFEB4FBF0F464082D
S315080016A066E0B0F5B06F74D00AD8B0F5806F66D032
S315080016B0B0F5A06FCAD100216846FFF711FD41E0D9
S315080016C0B0F5C06FC2D100216846FFF701FC39E0CA
S315080016D0B0F5106F78D00FD8B0F5086F00F0888095
S315080016E0B4D8B0F5E06F74D0B0F5F06FAED1002184
S315080016F06846FFF711FC25E0B0F5406F44D016D8D0
S31508001700B0F5206F6AD0B0F5286F9FD100213B4B0A
S315080017100391D3F8703203F00303012B63D0022B35
S3150800172064D041F23A21344804F07FF95EE0B0F51E
S31508001730486F8BD100216846FFF7D8FD02E006F016
S31508001740AFFB0090009805B030BD06F0A9FB054632
S315080017502046FFF7A1FEB5FBF0F50095F2E706F087
S31508001760BFFB04464FF42070FFF796FEB4FBF0F477
S315080017700094E7E701A8FFF717FC019DE8E70021B9
S315080017806846FFF73BFCDDE700216846FFF770FC7B
S31508001790D8E700216846FFF7DDFCD3E74FF0E023E2
S315080017A002911B695B0705D506F09AFB0290029B1E
S315080017B00093C7E703A902A8FFF78AFBF7E700210A
S315080017C06846FFF7F7FCBDE700216846FFF724FDEA
S315080017D0B8E700216846FFF7C3FBB3E70021684670
S315080017E0FFF74CFDAEE703A8FFF772FB039BDFE7A5
S315080017F06846FFF749FBA5E71395000800800050E7
S3150800180008B58020FFF7B0FE034B98429EBF4FF401
S315080018108032024B1A6708BD005A620200A00050C7
S315080018201FB503460020B3F5807F019000F0D080F5
S3150800183063D85D2B54D84C2B06D82D2B46D8232B92
S315080018402AD840F2F151B2E04D3B102BF9D801A24B
S3150800185052F823F0C719000843180008431800086F
S31508001860431800085B1900084318000843180008C5
S31508001870211A0008791900081F190008171A000804
S3150800188043180008431800084318000843180008BE
S31508001890431800082B1A0008243B092BD1D801A2AB
S315080018A052F823F0C7190008C7190008C719000815
S315080018B0C7190008C719000843180008B71900080F
S315080018C0431800083B190008FD1900083D2B00F0D5
S315080018D090803E2BB5D1002001A9FFF741FB6EE0B1
S315080018E0802BAED1574B1B6F03F00703013B032B2D
S315080018F05BD8DFE803F058515456B3F5F06F78D04B
S3150800190020D8B3F5B06F56D00ED8B3F5607F7ED029
S3150800191097D3B3F5806F56D0B3F5A06F91D1002059
S3150800192001A9FFF7DDFB4AE0B3F5D06F66D0B3F542
S31508001930E06FD0D0B3F5C06F83D1002001A9FFF7BF
S31508001940C7FA3CE0B3F5206F6AD00BD8B3F5086F39
S3150800195059D0B3F5106F7FF474AF002001A9FFF7D3
S315080019605BFC2CE0B3F5406F55D0B3F5486F5CD0FF
S31508001970B3F5286F7FF465AF324BD3F8703203F0B6
S315080019800303012B56D0022B5AD041F23A212E4896
S3150800199004F04BF8002300E0052301930FE003232E
S315080019A0FBE70823F9E70223F7E740F2295126481F
S315080019B004F03BF803E0002001A9FFF7CBFB0198F0
S315080019C005B05DF804FB002001A9FFF717FBF6E751
S315080019D04FF0E02302901B695B0705D506F080FAF5
S315080019E00D230393039BD8E703A902A8FFF770FA10
S315080019F0F8E7002001A9FFF78FFAE0E7002001A920
S31508001A00FFF7D8FBDBE701A9FFF73EFAD7E701A9FD
S31508001A10FFF7CAFAD3E7002001A9FFF729FBCEE7AB
S31508001A20002001A9FFF72AFCC9E7002001A9FFF752
S31508001A305DFCC4E7002103A8FFF74AFA1123ACE7C7
S31508001A401523AAE700800050139500084FF480324A
S31508001A50074B0849586E03F580535A664B6A23F0BC
S31508001A6001034B62C3035CBF034B5A66704700BF52
S31508001A700080005000C0075000A0005038B5036829
S31508001A8004460F2B04D940F657417E4803F0CDFF94
S31508001A9063680F2B04D940F65A417A4803F0C5FF0C
S31508001AA0A3680F2B04D940F65D41764803F0BDFFC5
S31508001AB0237B0F2B04D94FF44661724803F0B5FF18
S31508001AC0637B0F2B04D940F663416E4803F0ADFFE4
S31508001AD0A37B3F2B04D940F666416A4803F0A5FF6D
S31508001AE0E37B3F2B04D940F66941664803F09DFF26
S31508001AF02369032B04D940F66C41624803F095FF2D
S31508001B006369032B04D940F66F415E4803F08DFFE5
S31508001B10E369032B04D940F672415A4803F085FF5E
S31508001B208020FFF77DFE032800F08A804FF480129C
S31508001B30554B4FF0A0615A6645F60E03534AC2F854
S31508001B408030534B99624FF4803103F58053996284
S31508001B50936DD903FCD4916D11F08041FBD1D4E982
S31508001B6000031B0543EA0063E07B0343207B43EA4B
S31508001B700043607B43EA0033A07B43EA801313618A
S31508001B809069D4E904531B0643EA856300F00040D4
S31508001B900343A07EE57E0343207E43EA0043607E3E
S31508001BA043EA00239361136AE06923F00F030028D0
S31508001BB043EA000343EA850314BF0125002543EAE7
S31508001BC0C5031362334D3CD194F82430916A94F8D6
S31508001BD02000DB00294043EA40130B4394F8211008
S31508001BE043EA011343F4803393622B49274A936DE2
S31508001BF031EA0303FBD14FF08071254881621369EE
S31508001C00A56823F4700343EA055313614FF00043B4
S31508001C10836194F822300BB9204B996294F82330EB
S31508001C203BB94FF480321D4B9A62184A936D5B009C
S31508001C30FCD494F825301BB1144B194AC3F88020FC
S31508001C4038BD022808D11161164891614FF408522F
S31508001C504FF47F41FFF706FC0C4994F822308A6A54
S31508001C6094F820001B062A4043EA4013134394F8CD
S31508001C70242043EAC20394F8232043EA02438B62F2
S31508001C80D7E700BF13950008009000500040005A9F
S31508001C900050005AC7FFFEFE030001000060005A0C
S31508001CA0F1A7FFFF3440005A014B93F90000704733
S31508001CB0C0160020436810B5072B044604D940F621
S31508001CC0BF612A4803F0B1FEA368032B04D940F686
S31508001CD0C161264803F0A9FE2378032B04D940F6F0
S31508001CE0C361224803F0A1FE94F90130002B04DAFF
S31508001CF040F6C5611D4803F098FE4FF400011C4AE2
S31508001D00637851664FF4D151022002F5B832516218
S31508001D1018494F2B48604FF0010028BF4F2301F5A3
S31508001D20805148601169C903FCD4217843EA01232C
S31508001D305361D4E901131B0143EA0123617B0B4379
S31508001D40217B43EA41039360E37BA17B1B0143EAC2
S31508001D504113617C0B43217C43EA41035360A37C16
S31508001D6013B16FF4D153536210BD00BF1395000829
S31508001D700090005000100250014B1880704700BFB9
S31508001D80BE160020014B1880704700BFBC16002005
S31508001D904FF4800208B5184B5A660223174A536057
S31508001DA0936813F48033FBD1012822D106F0B2F8E8
S31508001DB0134B984215D003F5122303F5F86398429E
S31508001DC013D0104B00EB8002400AB3FBF0F3520A23
S31508001DD00A49CA620B6301234B620022074B5A6009
S31508001DE008BD45F67A13084AF2E745F61A03074A84
S31508001DF0EEE75362F1E700BF009000500040025042
S31508001E0000F0490264666666D8B80500BBCF0500CF
S31508001E10B0F5207F38B576D00ED8B0F5007F60D003
S31508001E2003D890B3B0F5C07F2FD0BDE8384040F254
S31508001E3053313D4803F0F9BDB0F5607FF5D13B4A13
S31508001E404C1ED2F8FC5015F080751EBFD2F8FC3037
S31508001E5023F08073C2F8FC30032C04D940F21E31FB
S31508001E60314803F0E2FD324AD2F8803023F03003DD
S31508001E7043EA0413C2F8803035B12C4AD2F8FC3054
S31508001E8043F08073C2F8FC3038BD102901F1FF34E5
S31508001E9003D8284BCB40DB0704D440F2EF21224875
S31508001EA003F0C3FD03F078FE03F084FE4FF480319F
S31508001EB0214B1F4A1967136F23F4704343EA04330F
S31508001EC0136706F00DF80446FEF7D2FFC0F10201CB
S31508001ED0204603F069FE00F049F8BDE83840FFF7F0
S31508001EE08FBC4C1E1F2C04D940F236310E4803F025
S31508001EF09CFD0F4AD2F8903023F0F85343EA046366
S31508001F00C2F89030C0E74C1E012C04D94FF44F712B
S31508001F10054803F08AFD064A136F23F4806343EAF3
S31508001F2084231367B0E700BF1395000800ED00E0AF
S31508001F3000800050160101000090005008B50121EC
S31508001F40022000F077F94FF42070FFF7A5FA054B49
S31508001F50187003F021FE03F02DFE4FF48032024B79
S31508001F601A6708BDFE1300200090005008B54FF40C
S31508001F70C070FFF7F9FABDE808400449884294BFE3
S31508001F80012102214FF42070FFF742BF80F0FA02C8
S31508001F9038B5044605F0A4FF0546FEF769FFC0F10B
S31508001FA00201284603F000FE0121002000F096F900
S31508001FB02CB1FFF7DBFFBDE83840FFF721BC034B28
S31508001FC04FF420701978FFF723FFF4E7FE1300207B
S31508001FD02DE9F0410546FFF7C1F9431E03330446D0
S31508001FE004D940F6A621394803F01FFD4FF4C02254
S31508001FF0374B5A6603F598335A68012A04D135498E
S315080020004A605A689207FCD48020FFF709FC052825
S3150800201007D103F0C1FD03F0CDFD4FF480322C4B00
S315080020201A672D4B24F040749D423DD02B4B9D42A0
S315080020303DD005F02FFF8542064603D901212846E3
S3150800204000F04CF9264FFB6813F0060FFBD1D7F8C2
S315080020500880BC60BB68634013F4F81F2AD1284681
S31508002060FEF7C0FA8020FFF7DBFB052814D105F040
S3150800207037FF8542044604D240F60231134803F07E
S31508002080D4FCFEF7F5FEC0F10201204603F08CFDF4
S31508002090FFF76CFFFFF7B4FBB54214D8BDE8F04173
S315080020A00121002000F01AB944F00074C1E744F099
S315080020B08074BEE740F6F121044803F0B6FC3546C5
S315080020C0C7F80880CEE7BDE8F08100BF1395000881
S315080020D00090005000E0015040420F0080841E002E
S315080020E00000015038B53D4B0546984258D026D8D1
S315080020F03B4B984264D015D868B13A4B984239D0D0
S31508002100394B984236D0394B984233D041F2CB21DD
S31508002110374803F08AFC002441F26501344803F08D
S3150800212084FC2DE0334B98424ED003F5371303F564
S31508002130D8639842EAD1304BD3F8B8401DE02F4B0C
S31508002140984235D00CD82E4B98422DD003F57423DF
S3150800215003F510739842D9D1274BD3F8C4400CE045
S31508002160284B984228D0284B9842CFD1224BD3F8F7
S31508002170D04002E0204BD3F8A040631E0333CBD8EF
S315080021804FF40022214B24F040745A66174B9D42A7
S315080021901ED0144B9D421ED04FF0B4439C6038BDF0
S315080021A0154BD3F8BC40E8E7134BD3F8C040E4E737
S315080021B0114BD3F8C840E0E70F4BD3F8CC40DCE727
S315080021C00D4BD3F8A440D8E70B4BD3F8B040D4E76F
S315080021D044F00074E0E744F08074DDE70024F4007E
S315080021E0404B4C0080841E0000093D0040420F0011
S315080021F013950008809698000080E00F80BA8C013D
S31508002200C0EA21010048E801005A62020090005025
S31508002210024A536B0342FCD1704700BF0040095085
S31508002220034A0179D36E23F030030B43D366704714
S3150800223000400050F8B50446244BD3F88420D00655
S31508002240FBD4D3F88430C3F381139C423CD005F009
S3150800225027FE012C05460BD11D4B984204D940F2A6
S31508002260A6711C4803F0E1FB0121284603F09CFCFB
S3150800227006F0D7FC4FF00072174B07465A66204601
S3150800228003F09DFC4FF48063104E621E9340336743
S31508002290736E9A010AD5384606F0BEFC022C13D195
S315080022A02846BDE8F840002103F07EBCD6F8843005
S315080022B09B06F0D4D6F884309906E9D540F2BE716B
S315080022C0044803F0B2FBE3E7F8BD00BF0040005046
S315080022D0005A6202319600080060005010B50C469C
S315080022E008B905F0DDFD074B21461B783BB1064BC7
S315080022F0984204D80120BDE81040FFF79BBF022092
S31508002300F9E700BFFF130020005A62024FF00042AF
S3150800231038B5244B244C5A664AF6CD33656C0146CB
S3150800232005F00105236430BB0120FFF771FF6368E0
S31508002330DB0708D4002415B11B4B1C4A1A6403F0AA
S315080023403FFC204638BD1A4B58600846194B226B8D
S31508002350D20705D4984201D10724ECE70130F6E705
S315080023609842E7D1F8E70132236B13F0080305D04A
S315080023708A42F8D1F0E700220E49F5E78A42EBD007
S3150800238020210B4A91620121A2F58052516006492B
S31508002390084A886A800603D49342DDD00133F8E7F9
S315080023A09342DEE700900050004009503254FFFF88
S315080023B00060095040420F004FF0004238B5164BF6
S315080023C001465A664AF6CD33144C154A656C2364A1
S315080023D043780B205B0043F00103D363FFF718FF34
S315080023E063688A7823F4F87343EA02136360CA7849
S315080023F04B7943EA0223A3600A798B7943EA0223DD
S3150800240023610878FFF782FFEB0744BF054B236477
S3150800241003F0D6FB012038BD00900050004009505B
S31508002420004000503254FFFF0F2870B5044605D906
S3150800243040F63B71124803F0F8FA0F244FF00042B9
S31508002440104B11495D6E03F580535A664AF6CD3333
S315080024504E6C80200B64FFF7DBFE0B6A23F00F033C
S3150800246023430B62F30744BF084B0B64002DA2BF3E
S315080024704FF00042064B5A6603F0A2FB70BD00BF40
S315080024803196000800800050004009503254FFFF82
S3150800249000A00050F8B507460D461E46144622B958
S315080024A040F255112F4803F0C0FA25B94FF42070B1
S315080024B0FFF75AF80546402E41D009D87EB1202E9E
S315080024C017D0BDE8F8404FF4CE71264803F0ADBAF0
S315080024D0602EF6D1B4EB950F3ED804230DE0B4EB8D
S315080024E0151F04D940F287111E4803F09EFA1023DF
S315080024F003E0B4EBD50F1CD808235C43620802EB53
S315080025004512B2FBF4F2184D203AB5EBC20F4FEA6A
S31508002510C20404D240F2B311124803F086FA6022CC
S3150800252007F500539A602C4007F580539E60FC61BE
S31508002530F8BD4FF4C6710B4803F077FADCE70623BB
S31508002540B5FBF3F3A34201D30623D6E740F2911174
S31508002550044803F06AFAF7E74FF4CB71014803F031
S3150800256064FABAE7C0960008F8FF7F00124B10B568
S315080025709842044604D040F26F41104803F055FAD9
S31508002580012104F58053596040F6AA6341F2050219
S31508002590636100230A48A360E365E26004F500521C
S315080025A02361E361E36490640348A365844204BF3E
S315080025B023656365516010BD00C00550C0960008CC
S315080025C0FFFF01002F4B70B5984204460D4604D014
S315080025D040F226312C4803F028FA2046FFF7C6FFBA
S315080025E0012304F580567360AB7C1BB1A36843F0E6
S315080025F08043A360EB7C4BB1224B9C4202BF2A7DF1
S31508002600A3F51033C3F8C8218023F3652A8A6B7BA8
S3150800261020461343EA891343E3602B7BD5E901126D
S31508002620FFF738FF6B7D1BB1A36843F48033A360C3
S31508002630AB7D1BB1A36843F40043A360EB7D2A7E00
S315080026401B07120502F4E00203F0E0431343A365F7
S315080026506B7E9A1E012A4FF0020209D80B49032BFA
S31508002660C1F8202709D10423F3652B78636170BD6F
S315080026700749012BC1F82027F4E7042204F5005383
S31508002680DA65F2E700C00550C096000800D003508E
S3150800269000E0035038B50A4B044698420D4607D069
S315080026A0084B984204D04FF4AA61074803F0BDF9D5
S315080026B06368DB0702D5636D2B42F9D138BD00BFCD
S315080026C00000015B00000A50519700080B4B10B53B
S315080026D09842044607D00A4B984204D040F261510A
S315080026E0084803F0A2F9204640F6FF71FFF7D2FF2B
S315080026F0012304F58054636010BD00BF0000015B30
S3150800270000000A5051970008094B10B59842044634
S3150800271007D0084B984204D040F27351064803F09C
S3150800272084F96368012B04BF04F50054636010BD87
S315080027300000015B00000A5051970008084B10B5CD
S315080027409842044607D0074B984204D040F28F516E
S31508002750054803F06AF963689B07FCD410BD00BFFF
S315080027600000015B00000A50519700080B4B10B59A
S315080027709842044607D00A4B984204D040F2A25128
S31508002780084803F052F9204640F6FF71FFF782FF2A
S31508002790012304F58054A36310BD00BF0000015B4C
S315080027A000000A50519700080B4B10B59842044692
S315080027B007D00A4B984204D040F2B351084803F0B8
S315080027C034F9204640F6FF71FFF764FF022304F54B
S315080027D08054A36310BD00BF0000015B00000A50CF
S315080027E0519700080B4B10B59842044607D00A4B80
S315080027F0984204D040F2C451084803F016F920461E
S3150800280040F6FF71FFF746FF042304F58054A363DF
S3150800281010BD00BF0000015B00000A505197000878
S315080028200B4B10B59842044607D00A4B984204D081
S3150800283040F2D551084803F0F8F8204640F6FF71F3
S31508002840FFF728FF082304F58054A36310BD00BFD3
S315080028500000015B00000A50519700080D4B10B5A7
S315080028609842044607D00C4B984204D04FF4C561F1
S315080028700A4803F0DAF8A36CDA0704D540F22B61AC
S31508002880064803F0D2F8A36C1B0600D410BDE36B10
S31508002890F9E700BF0000015B00000A5051970008E5
S315080028A00E4B10B59842044607D00D4B984204D0FB
S315080028B040F244610B4803F0B8F8A36C9A0704D5B4
S315080028C040F24761074803F0B0F84FF4807204F508
S315080028D080539A63A36C9B01FCD410BD0000015B76
S315080028E000000A5051970008234B10B59842044639
S315080028F007D0224B984204D04FF4AC71204803F01D
S3150800290094F82046FFF78CFF2046FFF74DFF50212D
S315080029102046FFF7BFFE2046FFF7F6FE2046FFF7E4
S315080029200DFF2046FFF79AFF2046FFF7B9FF04235D
S3150800293004F5805104F500520B6113610B611361B4
S315080029400B6113610B611361202341F202012361BC
S315080029500023E360A36061614FF4A0216162094925
S31508002960E3612362A361A365A362E3622365D1647D
S3150800297023636363236310BD0000015B00000A50F4
S31508002980EC970008FF3F0D035B4B70B59842044671
S315080029900D4607D0594B984204D04FF483715848D6
S315080029A003F043F825B94FF48471554803F03DF810
S315080029B02046FFF799FF23692A7823F087031343F4
S315080029C06A7A43EA420343F080032361A368AA7A3A
S315080029D023F0030343EA420343F00103A360636958
S315080029E02A7A23F00F031343636123696A6823F085
S315080029F07F4343EA02632361EB68002B7BD022699D
S31508002A00197922F0F80242EAC112197842EA41120B
S31508002A10D97842EA0112D97A42EAC102997942EA98
S31508002A2081122261E268987C22F0F04222F4702238
S31508002A3042EAC062D87C597942EA0042987842EA6A
S31508002A40802242EAC132E260A268987A22F4C04241
S31508002A5042EA4032A2605A7804F5805092028260B7
S31508002A60666ADA7B274802F0030230400243187B85
S31508002A70000100F070000243587B000200F4E06099
S31508002A800243987B000300F4E0400243587A0004AE
S31508002A9000F47020024362621A8AA26139B1164AAA
S31508002AA0944211D174220021D87900F0BDF9EB685F
S31508002AB09A7902B3104A944211D17022BDE8704047
S31508002AC00021187A00F0B0B90C4A944201D180224C
S31508002AD0E9E740F277410A4802F0A7FFE7E7074A25
S31508002AE0944201D17C22E9E740F29F41BDE870405B
S31508002AF0034802F09ABF70BD0000015B00000A504F
S31508002B00EC9700088C88F0FF38B50B4B04469842C2
S31508002B100D4607D0094B984204D04FF40271084875
S31508002B2002F083FFA36C5A06FCD56564A36C1B06EA
S31508002B30FCD5E06B80B238BD0000015B00000A508E
S31508002B40EC97000838B504460D4681B940F2FD21D8
S31508002B50094802F06AFFB4FBF5F4013CFF2C04D9DE
S31508002B604FF44171044802F060FF204638BD8142A7
S31508002B70F1D940F2FE21EBE7EC97000810B50446C0
S31508002B8020B940F2E621104802F04FFF2378C3B17E
S31508002B90012B03D0022B14D0032B04D13F236278D8
S31508002BA0D340DB0704D440F2E721074802F03DFF93
S31508002BB00122637821789A4030235943034B5A50AF
S31508002BC010BD40F2FF33EAE78798000840E003505B
S31508002BD010B5044620B94FF44071124802F025FF9B
S31508002BE02378E3B1012B03D0022B18D0032B04D191
S31508002BF03F236278D340DB0704D440F20131094809
S31508002C0002F013FF30222378534303F1A04303F560
S31508002C107033586C6378D84000F0010010BD40F25C
S31508002C20FF33E6E78798000810B5044620B940F256
S31508002C300E31124802F0F9FE2378E3B1012B03D0D6
S31508002C40022B18D0032B04D13F236278D340DB072D
S31508002C5004D440F20F31094802F0E7FE3022237807
S31508002C60534303F1A04303F57033186C6378D840D7
S31508002C7000F0010010BD40F2FF33E6E78798000830
S31508002C80034BD3F82424D3F820041040704700BF20
S31508002C9000C003502DE9F0410E461746044618B900
S31508002CA08A212F4802F0C1FE237813B3012B03D0E3
S31508002CB0022B1ED0032B04D13F236278D340DB07B7
S31508002CC003D48B21264802F0B0FE264BD3F81033E6
S31508002CD01BB18C21224802F0A8FE0F2E0CD8DFE883
S31508002CE006F036313131313131313131313131312D
S31508002CF0313140F2FF33E0E740F2CB11184802F0D9
S31508002D0094FE4FF000082046F7B105F037FA302256
S31508002D100F21207863785043072B88BF083B124D54
S31508002D2095BF9B009B0004300C3008FA03F29940CB
S31508002D30284402F046FF86B9204657B1BDE8F0415F
S31508002D4005F01CBAB046DEE7FFF718FFDFE7B04626
S31508002D50DDE7BDE8F041FFF711BFBDE8F08100BF30
S31508002D602099000800C0035030C0035038B501252B
S31508002D700729044605FA01F504D940F6CE11034899
S31508002D8002F053FE04F58054656238BD529A000875
S31508002D9038B501250729044605FA01F504D940F690
S31508002DA05421034802F041FE04F50054256438BD59
S31508002DB0529A000838B504460D4619B97A210E48C4
S31508002DC002F033FE2B781F2B03D97B210A4802F029
S31508002DD02CFE2B781B06A3606A78AB7843EA02437D
S31508002DE0A361FF23A3620023A36323644FF0FF3389
S31508002DF004F50054236538BDB999000838B501258E
S31508002E000729044605FA01F503D9F621054802F013
S31508002E100CFEBFF35F8F04F5005304F580545D6321
S31508002E20A56438BDB9990008B2F5805F70B5054646
S31508002E300E46144612D39B210E4802F0F6FD24F0E6
S31508002E40030404F1A04404F5603456B90F2D03D9E0
S31508002E50A321084802F0E9FD256001E0002AEED129
S31508002E6070BD032D03D9A721024802F0DEFD2D020D
S31508002E70F2E700BFEB9A0008054B9A689107FCD465
S31508002E805A689207F9D4DA69002AF6D1704700BF62
S31508002E9000800A5010B5064C6368DB0703D4A521E9
S31508002EA0044802F0C2FD05F0FDF90223236110BDB6
S31508002EB000800A50839B000808B5FFF7DDFF012252
S31508002EC0024B03F580514A601A6108BD00800A501A
S31508002ED0044B10B55C68012C03D1FFF7DBFF024BEE
S31508002EE05C6010BD00800A5000A00A5038B5074D36
S31508002EF0FFF7C2FF6B680446012B03D1FFF7E8FF13
S31508002F00FFF7BAFF2378EB6038BD00BF00800A5090
S31508002F1038B505460C4605F0CFF9BDB96268237881
S31508002F2012B1127843EAC203627843EA4203A268FE
S31508002F3012B1127843EA8213E27843EA82032269DD
S31508002F4012B1127843EA4223014A936438BD00BF9E
S31508002F5000800A504FF48032084B5A6603F5E62380
S31508002F609B691A0B027003F03F0242704FF6FF721C
S31508002F70C3F3851342808380704700BF00900050DA
S31508002F8007B56846FFF7E6FFBDF80030B3F5807F62
S31508002F9011D14FF48012094B0949586E03F5805335
S31508002FA05A664B6B23F0E05343F040634B63C3020E
S31508002FB05CBF044B5A6603B05DF804FB0080005002
S31508002FC00040005A00A0005030B588488BB005F084
S31508002FD072FE20B140F27931854802F026FD6C4632
S31508002FE0844D0FCD0FC42B68834A2360FF238DF8C9
S31508002FF00130D2F84C3113F4802340F0EA80D2F83D
S3150800300050218DF801309DF801306C46FF2B08BF22
S315080030102C236846794D8DF80130FEF74BFE322099
S31508003020FEF7AAFE0FCD0FC40FCD0FC495E8030017
S3150800303084E80300704BD3F84C21120300F1C380D7
S31508003040D3F85041E4B28DF81940FEF72DFE04443A
S3150800305084F308046A488DF81840FDF7C9FA6846EB
S31508003060FEF70CFD3220FEF78DFE6648FEF7B0FF30
S315080030706548FFF737F8654805F01DFE20B14FF49F
S31508003080EB715B4802F0D1FC614C0020FEF780FE34
S31508003090FEF754FF236F002023F0070343F00303D2
S315080030A02367FEF775FF236F5A4923F47443236792
S315080030B0D1F8FC2012F080721EBFD1F8FC3023F044
S315080030C08073C1F8FC300021D4F8803023F0030364
S315080030D043F00103C4F880304F4BC3F8801032B177
S315080030E04C4AD2F8FC3043F08073C2F8FC30484CA6
S315080030F0D4F8203123F0070343F00203C4F8203143
S31508003100D4F8283123F0070343F00203C4F8283122
S31508003110D4F8803123F0030343F00103C4F8803167
S31508003120D4F8403123F0030343F00203C4F84031D6
S31508003130D4F8603123F0030343F00203C4F8603186
S31508003140D4F8403223F0030343F00203C4F84032B4
S31508003150D4F8003223F0070343F00203C4F8003220
S31508003160D4F8083223F0070343F00203C4F8083200
S31508003170D4F8703223F0030343F00103C4F8703225
S31508003180D4F8203223F0070343F00103C4F82032B1
S31508003190FEF75CFC4FF0E0220020136943F00403BD
S315080031A01361D4F8603223F0070343F00103C4F82F
S315080031B06032D4F8943223F0070343F00103C4F8CD
S315080031C094320BB030BD154B1C88FF2C88BF5F248A
S315080031D039E74FF07E6393F89C2093F99C30002BD7
S315080031E0FFF611AF8DF801200DE700BF28AB0008E8
S315080031F0739D0008E0AA00080080E00FF4AA000802
S31508003200C017530200B4C404C0EA21012CAB00085D
S315080032100080005000ED00E0009000500001E00F33
S3150800322007B5094B186899889B7900906846ADF8E8
S3150800323004108DF80630FFF7BFF80920FFF7F4F8F9
S31508003240002003B05DF804FB1CAB000813B500248E
S31508003250064A6846536F43F00103536700948DF896
S315080032600440FEF7DDFF204602B010BD00400050C6
S315080032702DE9F04704460E4621B900F0F7F8064650
S3150800328000286DD0337D1F2B6CD805F0D3FC07467C
S31508003290354B1B68183B13F1180F10D1DFF8D08097
S315080032A0D8F80090002C39D1424621461C2000F05F
S315080032B0C9FA0546E0B1384605F0B7FC05E0A34271
S315080032C006D1384605F0B1FC12252846BDE8F08738
S315080032D01A68B24201D09B69DCE7002CF1D06B2159
S315080032E0224802F0A2FB384605F09FFC2325ECE7AE
S315080032F04FF0010AD8F8004000220421307D04F17D
S31508003300100300F0A7FA054680B1BAF1000F02D003
S31508003310204605F0FDFDC8F80090CCE7B9F1000F8E
S3150800332001D1C8F800404FF0000AE5E7024604213B
S31508003330307D04F1140300F08DFA054618B12069B2
S3150800334005F0E6FDE1E7214660602073A0600648C7
S3150800335041F8186BFDF7C0F8304600F067F8AAE7A1
S315080033602D25B2E70F25B0E7B4100020289E0008E7
S31508003370B010002038B505460C4619B9F121114898
S3150800338002F053FB0DB9104B1D6805F053FCD5E947
S3150800339000311A7D4FF0FF3393400B43DB4303D1D3
S315080033A005F043FC1A2038BDB3FA83F30122C3F1B2
S315080033B01F03DBB29A400A436A60237005F035FCA6
S315080033C00020F0E7289E0008B010002070B50D46D2
S315080033D01646044608B9084B1C6823681B7DAB4291
S315080033E008D905F027FC236943F8256005F01DFC7C
S315080033F0002070BD2120FCE7B010002070B50D46F6
S315080034001646044608B9084B1C6823681B7DAB4260
S3150800341008D905F00FFC636943F8256005F005FC3B
S31508003420002070BD2120FCE7B010002013B5046809
S31508003430806805F040FC0C4805F03DFC152000F0BE
S3150800344079F8152000F044F81E23ADF8043000235F
S31508003450204601A98DF80630FFF7ACFC012304F5D8
S315080034608054636002B010BD30AB00080048704756
S3150800347040AB0008F8B5134D6B6D2A6D1340124A20
S31508003480002B13659EB202DB01276EB9F8BD012336
S31508003490E9680E4AC1F304218B40284642F82130D8
S315080034A0BDE8F84004F0BCBFB6FA86F4C4F11F04C0
S315080034B0E4B22146284607FA04F404F0B1FF26EAE6
S315080034C00406E2E70000045000200450B81000206B
S315080034D04C2810B5044608D801236109074A04F0A8
S315080034E01F04A34042F8213010BD40F237110448AA
S315080034F002F09BFA002CF7DBEEE700BF00E100E0E4
S31508003500CD9E00084B2810B5044604D94FF4A17186
S31508003510064802F08AFA064B621153F8220004F0B4
S315080035201F04E040C04300F0010010BDCD9E000816
S3150800353000E100E0002808DB01224309034900F006
S315080035401F008240603341F82320704700E100E005
S3150800355038B500F110035C2B04460D4604D940F239
S315080035600E210E4802F061FA0F2D04D940F20F2100
S315080035700A4802F05AFA60B20028ACBF00F160406F
S31508003580074B4FEA0515EDB2ABBF00F5614000F0F9
S315080035900F0080F800531D5438BD00BFCD9E0008AB
S315080035A014ED00E010B505F045FB0A4B1A786AB928
S315080035B001226FF004041A7005F037FB2046052136
S315080035C00134FFF7C5FF4C2CF8D110BDBDE81040FB
S315080035D005F02BBB0114002013B50B4C23788BB9CF
S315080035E000F0AEFA684600F0A3FADDE9000102220F
S315080035F0064B00F0D9FA0123054A137000B9237067
S3150800360002B010BD1220FBE702140020D8100020DB
S31508003610C11600202DE9F04FB2F1FF3F06460D46D0
S315080036209146984687B00AD0531EB3F5007F01D25B
S315080036301A4204D04FF44271794802F0F6F926B9D5
S3150800364040F20D31764802F0F0F94FF0000A754B5A
S31508003650B9F1FF3F83F800A0109B14BF4C4608241D
S31508003660CDF814A0002B00F0D280C3F800A0002DDE
S3150800367000F0CF807368AB4240F2CB8005F0DAFAEF
S31508003680073505AA08F0010825F00705CDE900A2C7
S3150800369007464A4643462946304602F060FBDDF8AF
S315080036A014908346B9F1000F00D030B9384605F0BA
S315080036B0BCFA192007B0BDE8F08FB9F802A0316945
S315080036C04FEACA02C0EBCA0A0139BAF1270F3161BB
S315080036D07DD9B8F1000F54D1854205F1080A4BD0BF
S315080036E022464946304602F081FA04460590A2442D
S315080036F0504602F030FB059905F10F004A88C308C9
S31508003700A2EBD002AAF80220CA88AAF80430002A36
S3150800371034D0D31A9BB201EBC202AAF806309380C2
S315080037208B88ED08A380BAF804304A46E3805146F0
S3150800373000233046658002F05CFBB368F268083304
S315080037409342B36088BFF360237843F00103237084
S315080037503369013333616288B368083403EBC20303
S31508003760F268B360934288BFF360109B38461C60CA
S3150800377005F05BFA00209DE74C46B8E7AAF8062054
S31508003780CEE709EB0A042046039202F0E4FA0BF1AD
S315080037900703DB08059963800AF10703DB08A380A2
S315080037A0CB8893B1DB00039AD81D821A5A44C2F318
S315080037B0CF020B44E2809A80A3880AF1FF3A4FEAC7
S315080037C0DA0AA1F802A0CB80B7E7E380F4E7B8F1FC
S315080037D0000F20D009F10805B5FBF4F304FB1355D7
S315080037E0B5FA85F56D0985B922464946304602F08F
S315080037F0FDF9044623784A4643F00103237021461F
S315080038000123304602F0F5FAA5E74C46F2E72220F6
S3150800381050E721204EE72B1A5D425D41E3E700BFE2
S31508003820869F0008C116002007B5009313460A466E
S3150800383001460348FFF7EEFE03B05DF804FB00BF40
S31508003840D810002013460A460146014802F034BA49
S31508003850D810002007B5009313460A4601460348C8
S3150800386002F034FA03B05DF804FB00BFD81000205C
S315080038702DE9F74F0D4614469A46064620B940F2FA
S31508003880E441A64802F0D1F8BAF1000F00F04281EF
S315080038900023CAF800307368A34240F23D815DB93F
S315080038A0002C00F0398153462A462146304603B09B
S315080038B0BDE8F04F02F000BA2CB9284603B0BDE8BF
S315080038C0F04F05F025BB05F0B5F935F8067C073449
S315080038D04FEAC70B24F00704A3458046A5F1080163
S315080038E080F0968035F8023C002B6FD0DA1B012A4F
S315080038F06CD101EBC30911F83330D80766D4B9F88F
S315080039000220ABEB040313EBC2035FD41F2B3BDD92
S315080039102F19C4F3CF0425F8064C0134384625F888
S31508003920024C009302F017FA35F8022C009BBA8075
S31508003930B9F80620DB087B8022B3B9F80210511AC1
S3150800394011FA83F39BB209EBC202FB8093804A46C5
S3150800395000233946304602F04CFA484602F0FBF995
S31508003960002235F8063CB168CBEBC3030B44F1687B
S31508003970CAF800508B42B36048D8002A41D0083BA9
S31508003980B3603EE0FA80E2E733690137013B336111
S31508003990B9F80630174425F8067CA3B1B9F8022011
S315080039A09A1A12FA87F7BFB209EBC30325F8027C05
S315080039B09F804A460123304602F01BFA484602F029
S315080039C0CAF90122CDE725F8023CF2E7214653461B
S315080039D00022304602F070F9044630B1404605F040
S315080039E024F9204603B0BDE8F08F5A462946DAF88E
S315080039F0000002F041FB284605F08AFA0446002832
S31508003A00ECD1404605F011F90024EAE7F360B4E783
S31508003A1076D935F8022CABEB0409531EDB1B002ABA
S31508003A203CD001EBC20711F83220D20737D4002B5D
S31508003A3035D1C4F3CF03291925F8063C01330846C6
S31508003A4025F8023C009102F086F9009935F8022C17
S31508003A507B888A80FA8803EBD9034B80DAB17888A9
S31508003A60101A10FA83F39BB207EBC202CB8093803D
S31508003A7000233A46304602F0BCF9384602F06BF9A4
S31508003A800023B268A4EB0B04CAF800501444002BB8
S31508003A9039D1B460B5E70023CB80E9E71746B9F119
S31508003AA0270F2DD9C4F3CF02291925F8062C013280
S31508003AB0084625F8022C0091019309F1FF3902F016
S31508003AC04AF9009935F8022C4FEAD909A1F802906B
S31508003AD08A809FB1019B013313FA89F91FFA89F984
S31508003AE0A1F80690A7F8049033693046013333618C
S31508003AF000231A4602F07DF90123C2E7CF80F3E7D7
S31508003B00CAF800507DE7F36808349C42B46088BF61
S31508003B10F46076E7222464E7212462E7869F00089A
S31508003B2013460A4601460148FFF7A2BED8100020F0
S31508003B30024AD2E90021C0E900217047001100209D
S31508003B400349044B044A5B1A11605360704700BF6F
S31508003B50D0160020000004200011002038B50369A3
S31508003B600D461446DBB13AB981B9046824B940F266
S31508003B703B110C4801F059FF20460378DB070FD5A7
S31508003B8035B9C3885BB100EBC300F6E78469EDE796
S31508003B90012D04D1838813B1A0EBC300EDE7002003
S31508003BA038BD00BF31A00008F8B50D4617461C46BB
S31508003BB0064618B111B1082A00D823B94FF4C671C0
S31508003BC00F4801F032FF00233046C4E90065C4E916
S31508003BD0023323616362C4E90566277702F0BBF8FE
S31508003BE02369013DED08013375802361A368E26806
S31508003BF0083393424FF00000A36088BFE360F8BD26
S31508003C0031A0000808B502F011FA034B1868BDE8A0
S31508003C10084004F05EBE00BF0811002000B58BB056
S31508003C202022002102A802F00DFA0B4B4FF4805215
S31508003C30019337230021CDE90623084801AA04F099
S31508003C40FDFD074B186018B95221064801F0EDFE34
S31508003C500BB05DF804FB00BFFAA50008053C000898
S31508003C6008110020E4A0000870B504F0E3FF144E24
S31508003C7005463478FCB9134B1C60134B1C60134B78
S31508003C801C6000F02BF8012005F05AF904F056FDE7
S31508003C900F4B0246186020B9284604F0C6FF2320B9
S31508003CA070BD234640F2E7310A4801F0C3F90A4BD2
S31508003CB0186001233370284604F0B7FF0020EFE7A9
S31508003CC00514002014110020101100201C110020DA
S31508003CD01811002018FCFFFF0C11002010B5002455
S31508003CE086B01422214601A88DF8004002F0AAF9F0
S31508003CF0012313488DF8043004F0DDFFBFF34F8F1E
S31508003D006846FFF7F3F8204601A98DF80440FFF747
S31508003D10FFF820460F2104F0EFFA0F21204604F0A1
S31508003D20F9FAFFF7C9F804F0BDFA064B43209C617F
S31508003D30FFF700FC4320FFF7CBFB06B010BD00BF22
S31508003D4028AB000800800A5010B5044604F0C8F8ED
S31508003D504FF47A729042B0FBF2F105D23921BDE8F0
S31508003D6010400C4801F061BE0B4BB3FBF1F30B4955
S31508003D70884201D93F21F2E702FB04F0B0FBF3F0D9
S31508003D80022806D9BDE810400323B0FBF3F0FCF780
S31508003D90EFB910BD28A2000840420F00E7CD9A3BB4
S31508003DA007B500F08BF901280DD100238DF8040022
S31508003DB0ADF8060008481A46006801A902F022FC78
S31508003DC003B05DF804FB0228FAD1002301228DF81E
S31508003DD00430ADF80620EDE72411002010B5AAB08E
S31508003DE000F012F900F074FA00220421082002F00B
S31508003DF0C3FE1F4C206018B945211E4801F015FE68
S31508003E0000F026FA206801F08DF8206800F090FC92
S31508003E1000F094FC00F0B2FC00F0A4FA01F0D8F827
S31508003E20154B0122009332210023144803F092FF18
S31508003E30134C206018B954210E4801F0F6FD246889
S31508003E4003F0C2F90023024600930121204603F03D
S31508003E50F3FF01F0DBF8A02103460A4A02A801F0A5
S31508003E603FFB02A802F088F800F0AAFA2AB010BDB3
S31508003E7024110020C3A20008A13D000824A30008BD
S31508003E80201100202DA3000808B50D4B0D481B78FE
S31508003E9063B101F034FE0C4B1B7873B10B4B1B78E6
S31508003EA00B4833B1BDE80840FCF700BF01F02AFE15
S31508003EB0F1E7BDE80840FCF71DBF064BEFE700BF7A
S31508003EC010140020D4AB00080E1400200C14002097
S31508003ED0A4AB00080F140020014802F007B800BF81
S31508003EE0B6AB0008014802F001B800BFB4AB000841
S31508003EF010B10348FCF7DABE0148FCF7FBBE00BF69
S31508003F00B2AB000810B10348FCF7D0BE0148FCF775
S31508003F10F1BE00BFB0AB000810B10348FCF7C6BE3F
S31508003F200148FCF7E7BE00BFAEAB0008014801F048
S31508003F30DDBF00BFACAB0008014801F0D7BF00BF2A
S31508003F40AAAB000810B10348FCF7B0BE0148FCF75D
S31508003F50D1BE00BFA8AB0008014801F0C7BF00BF2B
S31508003F60A6AB0008064B1870064B1970064B1A705C
S31508003F7022B90121054B1970054B1A70FFF784BF4A
S31508003F80101400200F1400200E1400200C1400201A
S31508003F900D1400200A4B1B7883B10A4A13780133A3
S31508003FA0DBB2042B01D81370704700231370064A3E
S31508003FB0137883F001031370FFF766BF704700BFDD
S31508003FC00E1400200D1400200C14002008B5012240
S31508003FD002210948FCF736FE012202210748FCF7B0
S31508003FE031FE00230121064A137053709170054A69
S31508003FF053701370917008BDA2AB0008A0AB0008FF
S31508004000091400200614002008B51B4804F053FEC6
S315080040101A4801F067FF1A4801F064FF194801F0D1
S3150800402061FF194801F05EFF184801F05BFF184868
S3150800403001F058FF174801F055FF174801F052FFE5
S31508004040164801F04FFF164801F04CFF154801F0DD
S3150800405053FD0122144B15491A7000230B7014499D
S315080040600B7014490B70144B1A70FFF70DFFBDE85F
S315080040700840FFF7ABBF00BF38AB0008B6AB000877
S31508004080B4AB0008B2AB0008B0AB0008AEAB000892
S31508004090ACAB0008AAAB0008A8AB0008A6AB0008A2
S315080040A0A4AB0008D4AB0008101400200F1400209D
S315080040B00E1400200D1400200C14002008B501224F
S315080040C00649074801F01BFF30B9BDE8084002223F
S315080040D00449054801F013BF08BD00BFA2AB00089C
S315080040E009140020A0AB00080614002030B5D8B18A
S315080040F0D9B10F4A0F4B14881B889BB2013B1B1B77
S31508004100C3F30803994210D80B4C0144138810F8DE
S31508004110015B9BB2E5541388884203F10103C3F39C
S3150800412008031380F2D1012030BD0020FCE700BF50
S31508004130C6120020C8120020131400202DE9F743E8
S315080041401F4E04F077FD337803F0FF0523B103B063
S31508004150BDE8F04304F069BD1A4B1B4A1B88118859
S315080041605B1AC3F30803002BF1D017884FF0010937
S31508004170BFB2C7F50074A4B29C4228BF1C46DFF83C
S315080041805880A8F8004086F8009004F04EFD48468E
S31508004190FFF7D8FE0D492346CDE900550C4A0D48D0
S315080041A0394401F08AFC40B12846FFF7CBFE04F0FB
S315080041B041FD3570A8F80050C9E703B0BDE8F083A3
S315080041C011140020C6120020C81200201314002063
S315080041D03CC0055028110020C412002073B50025E4
S315080041E028460195FFF7AEFEFFF7B6FE04F022FD5E
S315080041F0124A134914880B882344C3F3080313800F
S31508004200104B0D801D70104B1C881688A4B2B6B2D0
S31508004210A41BC4F3080404F008FD6CB101AB2A46DC
S3150800422029460A4803F0C2FD019B2BB14FF0E02353
S315080042304FF08052C3F8042D02B070BDC81200209A
S31508004240C412002011140020C61200204F5F000877
S3150800425007B50020154B16491880164B1880164BC3
S315080042601870164B1880FFF785F818B1C72114483F
S3150800427001F0DBFB00210E4A0091124B127812481E
S31508004280FCF722FC18B1CA210D4801F0CEFB0F49F4
S315080042900D48FCF7CFFB30B1CD21094803B05DF8D6
S315080042A004EB01F0C2BB03B05DF804FBC8120020A2
S315080042B012140020C612002011140020C412002077
S315080042C0BBA30008DD410008281100208CAB0008BC
S315080042D04FF4006330B58BB0ADF804304FF410637B
S315080042E01B4D03ACADF808300FCD0FC495E8070099
S315080042F084E80700174804F0DEFC174804F0DBFCE6
S3150800430001F06AFB042101220DEB0100FCF79AFC7F
S315080043100122022102A8FCF795FC00220F4B104847
S31508004320C3F820274FF40022C3F838274FF4102289
S31508004330C3F830271422C3F8202705238DF80C303C
S315080043404FF4E13303A90593FEF73CF90BB030BDF2
S31508004350B8AB000838AB000824AB000800C003500F
S3150800436000C005500D4B0E4A1860002313700D4A05
S3150800437013700D4A13700D4A13700D4A13700D4AC7
S3150800438013800D4A13700D4A82F84230A2F8403065
S31508004390A2F8843082F88630704700BF40110020AA
S315080043A057160020561600205516002054160020D1
S315080043B013160020CA12002014160020CC12002062
S315080043C0042208B5074B092003F5005103F580536D
S315080043D08A64DA64FFF7AEF8BDE808400920FFF7FB
S315080043E077B800BF00C00550F8B506460D46144616
S315080043F00AB10023137004F01DFC204B1A7822B171
S315080044000CB10122227000221A7044211C4B1D4A4D
S315080044101C78E3B201FB042494F842407CB91A4B99
S315080044201B78C3F10103DBB201FB032191F84210AB
S3150800443001F0FF0419B904F0F8FB2046F8BD442141
S3150800444001FB0324B4F8404001FB0321AC4224BF1E
S3150800445005F1FF35ACB235463719BD4209D14425B9
S31508004460002105FB03223155A2F8401082F84210BC
S31508004470E1E711F801CB05F801CBEEE75516002068
S3150800448056160020CC120020571600202DE9F341BD
S3150800449000250195FFF720FD7B4B9A6C51075BD5EC
S315080044A004225C6A03F500539A64784BE4B21A78DE
S315080044B0012A0FD1A4F15B025442544164001C70D6
S315080044C0019B002B48D04FF0E0234FF08052C3F8F1
S315080044D0042D41E0022A33D1412C1D70F0D16C4BDA
S315080044E06C4E93F8008033885FFA88F8002BE7D083
S315080044F04425694F05FB087595F84230002BDFD136
S31508004500B5F8404064B9442505FB08753288A3B25E
S3150800451093420CD3442303FB0873A3F84020CFE748
S31508004520013C01A8A5F8404001F04DFDE8E75B4ACB
S31508004530A3B2D05C01A9E854013401F02CFDE5E7EB
S315080045401B2C02D101221A70BAE70A2C1D70544B93
S3150800455005D11A781AB11D7002B0BDE8F0810D2C8C
S315080045600CBF012200221A7001D00A2C4DD1442218
S31508004570474D494C2B784948DFB202FB0343B3F851
S31508004580402000213F2A28BF3F2284468EB2B242ED
S3150800459035D800263F4B0CF802601A8004F04AFB17
S315080045A04423012203FB074787F842202A783D491E
S315080045B0D2B20A702A78C2F10102D2B22A702A78D7
S315080045C003FB0242A2F840602A7803FB024383F801
S315080045D0426004F02AFBFFF785FC01A90D2001F0D3
S315080045E0DAFC0A2001A901F0D6FC2F4B186800282E
S315080045F03FF466AF314601AA02F0F2FD60E713F810
S31508004600016B013100F8016BC0E7082C01D07F2C43
S3150800461016D144211E4B1A781F4B01FB023393F81F
S315080046204220002A7FF44CAFB3F84020002A3FF41A
S3150800463047AF013A01A8A3F8402001F0C4FC3FE7C0
S31508004640A4F120035E2B3FF63BAF01A9204601F0FB
S31508004650A2FC44210E4B1A780F4B01FB023393F848
S315080046604210019A31B10121104B1970002A3FF40A
S3150800467073AF28E7B3F840103E29F4D8481CA3F8CE
S3150800468040005C54F2E700BF00C005501316002036
S3150800469057160020CA120020CC120020141600203B
S315080046A054160020561600204011002055160020EA
S315080046B070B51C4EAAB000254FF0FF3201212846DE
S315080046C08DF8035002F070FF0120FFF711FC40211E
S315080046D00DF1030202A8FFF787FE9DF803401CB1FF
S315080046E0114801F049FC00E018B90020FFF700FC6A
S315080046F0E1E7602312AA01A902A88DF8484000F054
S3150800470085F828B99DF84830002BEED012A8E8E7BE
S3150800471023463222306801A901F074FF0128E4D04B
S315080047200248DEE7481100201BA4000836A400084A
S31508004730014B1860704700BF4811002007B50B4BA6
S315080047404FF4807201930223094900930948002314
S3150800475004F021FA012806D06321074803B05DF862
S3150800476004EB01F062B903B05DF804FB44110020C4
S3150800477053A40008B14600085FA40008014B186856
S31508004780704700BF44110020054903681A7812B122
S315080047908A5C120700D4704701330360F5E700BF4F
S315080047A0EDAB0008002373B5044601930E46FFF7E8
S315080047B0EBFF0068037813B9002002B070BD2D2BFB
S315080047C0FAD02B2B04BF0130206003780E4AD35C45
S315080047D05B07F1D50A2201A900F078FE019B226841
S315080047E005469A42E8D04FF6FE72411E9142E3D83A
S315080047F023602046FFF7C8FF23681B78002BDBD110
S3150800480001203580D9E700BFEDAB0008F7B50F46A4
S3150800481015461E46002800F08680002900F0838091
S31508004820019001A8FFF7B0FF019C2378002B7AD0EE
S3150800483000230522204663493B6001F00BFC30BB90
S3150800484063791BB1604AD35C1A0720D5053401A8E1
S315080048500194FFF799FF019B1B784BB9002D62D095
S31508004860002E60D0594A3146284600F039FE5AE0F3
S31508004870B91CFFF797FF28B9002D54D0002E52D047
S31508004880534AF0E7002301203B7003B0F0BD042231
S315080048902046504901F0DEFBD0B923791BB14A4ABC
S315080048A0D35C1B0714D5043401A80194FFF76CFFE9
S315080048B0019B1B782BB9002D35D0002E33D0464AE4
S315080048C0D1E7B91CFFF76EFF0028D5D00123DAE738
S315080048D008222046414901F0BDFB40BB237A1BB1A3
S315080048E0394AD35C180722D5083401A80194FFF782
S315080048F04BFF019B1B781BB9ADB1A6B1384AB2E78D
S31508004900B91CFFF74FFF18B96DB166B1354AAAE76A
S315080049107B88202B09D935B12EB12023314628466C
S31508004920314A00F0DDFD0020AFE70423ABE706229D
S3150800493020462E4901F08EFBA8B9A3791BB1224A5D
S31508004940D35C19070FD5063401A80194FFF71CFF9D
S31508004950019B1B782BB1002DE5D0002EE3D0244A0D
S3150800496081E702238FE705222046224901F072FBE0
S3150800497080B963791BB1144AD35C1A070AD5053482
S3150800498001A80194FFF700FF019B1B78002BE2D1D9
S31508004990052378E704222046174901F05BFB002827
S315080049A0D9D123791BB1084AD35C1B07D3D5043464
S315080049B001A80194FFF7E8FE019B1B78002BCAD1DA
S315080049C0032360E7C3A40008EDAB0008C9A40008E8
S315080049D0F9A400082DA5000832A5000861A500085D
S315080049E06AA500089DA50008CAA50008FBA5000839
S315080049F002A6000840A6000846A6000808B5034B0C
S31508004A00186801F011FF80B208BD00BF60110020D0
S31508004A1008B5FFF7F3FF0A4B1A880A4B003A1988BC
S31508004A20094B18BF01221B88994238BF0021BDE8EF
S31508004A30084028BF0121003818BF0120FFF792BAA5
S31508004A40581300205A1300205613002030B5114C75
S31508004A50ADB04FF0FF31206801F054FF0E4B2068CF
S31508004A601D8800231A46194601F0CCFDFFF7C6FF3C
S31508004A700A4BA0211B880A4ACDE90103094B04A861
S31508004A801B8800932B4600F02BFD04A801F074FA4E
S31508004A902DB030BD5C1100205A1300205813002099
S31508004AA04BA600085613002070B505460024164E7E
S31508004AB00021306801F026FF012803D05C21134845
S31508004AC000F0B3FF0134FFF737FAAC42F0D1104DCE
S31508004AD04FF0FF31286801F015FF0E4A0E4913887A
S31508004AE0286823449BB213800A6822440A600B4A4A
S31508004AF0BDE870401188994238BF138000231A46D2
S31508004B00194601F07FBD00BF601100208BA6000882
S31508004B105C1100205A13002058110020541300205D
S31508004B20034B1888003818BF0120FFF7F5B900BFF6
S31508004B30581300202DE9F043ABB002F045FB204F97
S31508004B400646386801F070FE00250446DFF87880CE
S31508004B50DFF87890A54206D000226946386801F049
S31508004B60E1FD012806D0FFF7DBFFFFF751FF2BB069
S31508004B70BDE8F083019BF31A002B19DBB8F8002077
S31508004B80BDF80030A02193428EBF0022D21A92B2FD
S31508004B90A8F80020D9F8002002A80132C9F8002098
S31508004BA0084A00F09DFC02A801F0E6F90135D1E7B4
S31508004BB0002369461A46386801F024FDF6E700BF67
S31508004BC064110020EDA60008581300204C1100209F
S31508004BD02DE98048A74CA84FDBB005AD32222946FF
S31508004BE0386801F09FFD012804D0FFF7A3FFFFF7FF
S31508004BF0D1F9F2E7FFF786F92B78062B38D8DFE8E4
S31508004C0013F007004D003500F100F3006101800143
S31508004C106E88FFF7F3FEB04228BF304685B2761B92
S31508004C20B6B25DB12846FFF73FFF2B46A021934A4F
S31508004C3032A800F055FC32A801F09EF9A6B1ADF8ED
S31508004C40286002F0C1FA002300F56A5018300B906C
S31508004C508B480AAD1A462946006801F0D3FC01289C
S31508004C600AD0884801F088F9FFF7D2FEFFF7EEFE72
S31508004C700020FFF747F9B8E7834A138833441380BF
S31508004C80824A136801331360FFF74AFF3346804AA6
S31508004C90A02132A800F024FC32A8E3E74FF0FF3148
S31508004CA020686D8801F02EFE0023DFF804A21A465C
S31508004CB0BAF800601946206801F0A4FCB54240F233
S31508004CC08D802B46A021734A00960AA800F008FC9E
S31508004CD00AA801F051F9CBE70023D8F800001A46D4
S31508004CE0194601F08FFCFFF721F90136B3B29D4250
S31508004CF0F2D84FF0FF31206801F004FEBAF8003010
S31508004D00654A5B1BAAF80030136820682B441360B9
S31508004D1000231A46194601F075FC2B46A0215F4A66
S31508004D200AA800F0DDFB0AA801F026F9DFF8588189
S31508004D30DFF84CB1B8F80030002B4CD0FFF75EFE18
S31508004D40002848D00DF1180900224946DBF8000072
S31508004D5001F0E8FC01283ED1B9F80030002BE9D073
S31508004D60FFF74CFEB9F80050A84228BF284686B27D
S31508004D70AD1BADB2B6B13046FFF796FEB8F80030B7
S31508004D80A0219B1BA8F80030454B464A1B8832A831
S31508004D900193BAF800300093334600F0A1FB32A81D
S31508004DA001F0EAF8002DC5D099E8030008AE86E8B8
S31508004DB00300012300223146DBF80000358001F0AC
S31508004DC021FC0128B6D0B8F800302E481D44A8F8B2
S31508004DD0005001F0D1F8FFF7A3FE45E70026DFF8FB
S31508004DE0E08083E7304874E76E88731E1F2B01D96D
S31508004DF02E486EE74FF0FF31206801F083FD2C4BFB
S31508004E002068B3F80080204B1D88002345441A46C5
S31508004E101946ADB201F0F6FBAE4208D23346A021E0
S31508004E20244A009532A800F05BFB32A851E7A6EBAE
S31508004E300801304689B201F0CFFE054608B91E487A
S31508004E4047E7DFF87C804FF0FF31206801F05AFD14
S31508004E50D8F8000001F036FE114B20681E800023AA
S31508004E601A461946C8F8005001F0CCFB3346134AD7
S31508004E700EE700BF5C1100206811002022A7000879
S31508004E80641100204CA70008581300205011002078
S31508004E9066A70008A9A7000854110020E8A700087B
S31508004EA05613002012A8000860A8000888A9000860
S31508004EB05A130020A8A90008E2A9000803AA0008B6
S31508004EC0601100204FF0FF31206801F01BFD0F4BE9
S31508004ED0A0211B880E4A03930E4B32A81B68029327
S31508004EE00D4B1B6801930D4B1B6800930C4B1B68FD
S31508004EF000F0F6FA002320681A46194601F082FBEC
S31508004F0093E7FFF717FEFFF745F8B1E654130020BD
S31508004F1019AA00084C110020501100205411002035
S31508004F20581100200022052108B51C4B18601C4B9F
S31508004F301A801C4B1A801C4B198008211B4B0846EB
S31508004F401A601B4B1A601B4B1A601B4B1A601B4BD3
S31508004F501A8001F011FE1A4B186020B94FF4D2716D
S31508004F60184800F062FD0521084601F035FE164B8B
S31508004F70186020B940F2A711124800F056FD01202A
S31508004F8003F0FEFD114B186020B94FF4D5710D489A
S31508004F9000F04BFDBDE80840FFF73ABD6811002058
S31508004FA05A130020581300205613002058110020C9
S31508004FB054110020501100204C11002054130020D9
S31508004FC0641100208BA60008601100205C110020E7
S31508004FD007B5002302220A49CDE9002309484FF400
S31508004FE0C07203F0D8FD012807D040F2B711064871
S31508004FF003B05DF804EB00F018BD03B05DF804FBE0
S315080050009FAA0008D14B00088BA60008014B1888F8
S31508005010704700BF5613002001490248FEF728B919
S3150800502040AB00086C110020014800F065BD00BFC8
S31508005030D4AB000853B94AB9002908BF00281CBFD9
S315080050404FF0FF314FF0FF3000F0B2B9ADF1080C68
S315080050506DE904CE00F006F8DDF804E0DDE9022388
S3150800506004B070472DE9F04F8C46099E04460F465A
S31508005070002B48D18A4215465ED9B2FA82F33BB173
S31508005080C3F120029F409D409C4020FA02F217433C
S315080050904FEA154E1FFA85FC220CB7FBFEF10EFBF4
S315080050A0117701FB0CF042EA0742904207D9AA1889
S315080050B001F1FF3702D2904200F258813946121A9E
S315080050C0A4B2B2FBFEF00EFB102200FB0CFC44EA75
S315080050D00244A4450BD92C1900F1FF322CBF012735
S315080050E00027A44502D9002F00F04381104640EA64
S315080050F00140A4EB0C0400211EB1DC400023C6E9E4
S315080051000043BDE8F08F8B4206D90EB1C6E900010F
S3150800511000210846BDE8F08FB3FA83F1002951D182
S315080051206345C0F01681824240F213810846002E7C
S31508005130E7D0C6E90047E4E7002A00F0AF80B2FAF4
S3150800514082F3002B40F0C2808A1A4FEA154EAFB29E
S315080051500121200CB2FBFEFC0EFB1C2240EA024297
S3150800516007FB0CF090420ED9AA180CF1FF382CBF99
S315080051704FF001094FF00009904203D9B9F1000F29
S3150800518000F0F080C446121AA4B2B2FBFEF00EFB81
S31508005190102200FB07F744EA0244A7420ED92C194D
S315080051A000F1FF322CBF4FF0010E4FF0000EA74260
S315080051B003D9BEF1000F00F0D2801046E41B40EA86
S315080051C00C4099E7C1F120058B400CFA01F400FA6E
S315080051D001F922FA05F72CFA05FC8A401F4320FA42
S315080051E005F3380C23431FFA87FE1C0CBCFBF0F8AA
S315080051F000FB18CC44EA0C4408FB0EFCA4450ED967
S315080052003C1908F1FF3A2CBF4FF0010B4FF0000B89
S31508005210A44503D9BBF1000F00F0B880D046A4EB33
S315080052200C041FFA83FCB4FBF0F300FB134403FBE6
S315080052300EFE4CEA0444A6450ED93C1903F1FF308C
S315080052402CBF4FF0010C4FF0000CA64503D9BCF15A
S31508005250000F00F09F80034643EA0840A4EB0E04C3
S31508005260A0FB02EC64457346E04602D307D1F1453C
S3150800527005D2BEEB02036CEB070C0138E0465EB1C3
S31508005280B9EB030264EB080404FA05F522FA01F304
S31508005290CC401D43C6E90054002132E742082F4698
S315080052A04B08AC4642EAC172AE46C407110C92B22C
S315080052B041EA034142EA0142B1FBF5F1B3FBF5F0DD
S315080052C01F23A2EB0C0241EA004142E79D40C3F1CD
S315080052D0200299409C402CFA02FC4FEA154E20FA0F
S315080052E002F2AFB2BCFBFEF80A430EFB18CC110C57
S315080052F041EA0C4108FB07FC8C4550D9691808F1AE
S31508005300FF302CBF4FF001094FF000098C4502D938
S31508005310B9F1000F30D0A1EB0C01B1FBFEF808FB88
S3150800532007FC0EFB181192B242EA0142624534D2DA
S31508005330AA1808F1FF312CBF4FF001094FF00009F8
S315080053406245BED2B9F1000FBBD1A8F102012A44C9
S31508005350B7E7841A6CEB030201201746E7E62C44EC
S3150800536002382BE7ACF1020C2A440CE702392A442E
S31508005370A5E62C440238BAE6A5EB0C0CA8F1020007
S315080053806144B1FBFEF808FB07FCCAE7A8F102086E
S315080053903C4444E7023B3C445EE7414691E7A1EBC7
S315080053A00C014046B1FBFEF808FB07FCB9E700BF55
S315080053B0704700BF08B5064B044613B10021AFF38A
S315080053C00080044B1B6803B19847204600F02EFB6B
S315080053D000000000C0120020242B2DE9F047864665
S315080053E0904601D8012B06D100F0B0F816230360C9
S315080053F00020BDE8F0870D4633482A4615F8014BCC
S31508005400065D16F00806F8D12D2C10D12C78012649
S31508005410951C33F0100215D1302C0DD12A7802F0E4
S31508005420DF02582A08D16C78023510230AE02B2CA3
S3150800543004BF2C78951CECE7002BF6D1302C14BF52
S315080054400A23082306F1004C00220CF1FF3C104603
S31508005450BCFBF3F903FB19CAA4F13007092F0FD8CF
S315080054603C46A3421BDD571C07D0814514D301D106
S31508005470A24511DB00FB0340012215F8014BEBE7BF
S31508005480A4F14107192F01D8373CEAE7A4F16107CF
S31508005490192F04D8573CE4E74FF0FF32EDE7531CC9
S315080054A008D122236046CEF80030B8F1000FA0D00C
S315080054B0691E06E006B14042B8F1000F99D0002AED
S315080054C0F6D1C8F8001094E7EDAB000813460A4673
S315080054D0014602480068FFF77FBF00BF6C16002030
S315080054E00CB4194B30B50C1E9DB01D6808DA8B2319
